{
  "_format": "hh-sol-artifact-1",
  "contractName": "FilMedia",
  "sourceName": "contracts/FilMedia_Contract/FilMedia.sol",
  "abi": [
    {
      "anonymous": false,
      "inputs": [
        {
          "indexed": false,
          "internalType": "uint256",
          "name": "id",
          "type": "uint256"
        },
        {
          "indexed": false,
          "internalType": "address",
          "name": "buyer",
          "type": "address"
        },
        {
          "indexed": false,
          "internalType": "uint256",
          "name": "price",
          "type": "uint256"
        }
      ],
      "name": "ItemPurchased",
      "type": "event"
    },
    {
      "anonymous": false,
      "inputs": [
        {
          "indexed": false,
          "internalType": "uint256",
          "name": "id",
          "type": "uint256"
        },
        {
          "indexed": false,
          "internalType": "string",
          "name": "title",
          "type": "string"
        },
        {
          "indexed": false,
          "internalType": "string",
          "name": "name",
          "type": "string"
        },
        {
          "indexed": false,
          "internalType": "string",
          "name": "file",
          "type": "string"
        },
        {
          "indexed": false,
          "internalType": "string",
          "name": "video",
          "type": "string"
        },
        {
          "indexed": false,
          "internalType": "string",
          "name": "image",
          "type": "string"
        },
        {
          "indexed": false,
          "internalType": "string",
          "name": "category",
          "type": "string"
        },
        {
          "indexed": false,
          "internalType": "string",
          "name": "description",
          "type": "string"
        },
        {
          "indexed": false,
          "internalType": "address",
          "name": "owner",
          "type": "address"
        },
        {
          "indexed": false,
          "internalType": "address",
          "name": "buyer",
          "type": "address"
        },
        {
          "indexed": false,
          "internalType": "bool",
          "name": "isSold",
          "type": "bool"
        },
        {
          "indexed": false,
          "internalType": "uint256",
          "name": "price",
          "type": "uint256"
        }
      ],
      "name": "Uploaded",
      "type": "event"
    },
    {
      "inputs": [
        {
          "internalType": "uint256",
          "name": "id",
          "type": "uint256"
        }
      ],
      "name": "addToPlaylist",
      "outputs": [],
      "stateMutability": "nonpayable",
      "type": "function"
    },
    {
      "inputs": [
        {
          "internalType": "uint256",
          "name": "",
          "type": "uint256"
        }
      ],
      "name": "artist",
      "outputs": [
        {
          "internalType": "string",
          "name": "name",
          "type": "string"
        },
        {
          "internalType": "address",
          "name": "owner",
          "type": "address"
        },
        {
          "internalType": "string",
          "name": "image",
          "type": "string"
        },
        {
          "internalType": "string",
          "name": "coverImage",
          "type": "string"
        },
        {
          "internalType": "string",
          "name": "category",
          "type": "string"
        },
        {
          "internalType": "string",
          "name": "description",
          "type": "string"
        },
        {
          "internalType": "string",
          "name": "title",
          "type": "string"
        },
        {
          "internalType": "uint256",
          "name": "listener",
          "type": "uint256"
        },
        {
          "internalType": "uint256",
          "name": "supporters",
          "type": "uint256"
        }
      ],
      "stateMutability": "view",
      "type": "function"
    },
    {
      "inputs": [
        {
          "internalType": "address",
          "name": "",
          "type": "address"
        }
      ],
      "name": "artists",
      "outputs": [
        {
          "internalType": "string",
          "name": "name",
          "type": "string"
        },
        {
          "internalType": "address",
          "name": "owner",
          "type": "address"
        },
        {
          "internalType": "string",
          "name": "image",
          "type": "string"
        },
        {
          "internalType": "string",
          "name": "coverImage",
          "type": "string"
        },
        {
          "internalType": "string",
          "name": "category",
          "type": "string"
        },
        {
          "internalType": "string",
          "name": "description",
          "type": "string"
        },
        {
          "internalType": "string",
          "name": "title",
          "type": "string"
        },
        {
          "internalType": "uint256",
          "name": "listener",
          "type": "uint256"
        },
        {
          "internalType": "uint256",
          "name": "supporters",
          "type": "uint256"
        }
      ],
      "stateMutability": "view",
      "type": "function"
    },
    {
      "inputs": [
        {
          "internalType": "string",
          "name": "_name",
          "type": "string"
        },
        {
          "internalType": "string",
          "name": "_image",
          "type": "string"
        },
        {
          "internalType": "string",
          "name": "_coverImage",
          "type": "string"
        },
        {
          "internalType": "string",
          "name": "_category",
          "type": "string"
        },
        {
          "internalType": "string",
          "name": "_description",
          "type": "string"
        },
        {
          "internalType": "string",
          "name": "_title",
          "type": "string"
        }
      ],
      "name": "createAnAccount",
      "outputs": [],
      "stateMutability": "nonpayable",
      "type": "function"
    },
    {
      "inputs": [
        {
          "internalType": "address",
          "name": "_pubkey",
          "type": "address"
        }
      ],
      "name": "deleteAccount",
      "outputs": [],
      "stateMutability": "nonpayable",
      "type": "function"
    },
    {
      "inputs": [
        {
          "internalType": "address",
          "name": "_artist",
          "type": "address"
        },
        {
          "internalType": "address",
          "name": "_listener",
          "type": "address"
        }
      ],
      "name": "followAnAccount",
      "outputs": [],
      "stateMutability": "nonpayable",
      "type": "function"
    },
    {
      "inputs": [
        {
          "internalType": "address",
          "name": "",
          "type": "address"
        },
        {
          "internalType": "address",
          "name": "",
          "type": "address"
        }
      ],
      "name": "followers",
      "outputs": [
        {
          "internalType": "bool",
          "name": "",
          "type": "bool"
        }
      ],
      "stateMutability": "view",
      "type": "function"
    },
    {
      "inputs": [],
      "name": "getAllContent",
      "outputs": [
        {
          "components": [
            {
              "internalType": "uint256",
              "name": "id",
              "type": "uint256"
            },
            {
              "internalType": "string",
              "name": "title",
              "type": "string"
            },
            {
              "internalType": "string",
              "name": "name",
              "type": "string"
            },
            {
              "internalType": "string",
              "name": "file",
              "type": "string"
            },
            {
              "internalType": "string",
              "name": "video",
              "type": "string"
            },
            {
              "internalType": "string",
              "name": "image",
              "type": "string"
            },
            {
              "internalType": "string",
              "name": "category",
              "type": "string"
            },
            {
              "internalType": "string",
              "name": "description",
              "type": "string"
            },
            {
              "internalType": "address",
              "name": "owner",
              "type": "address"
            },
            {
              "internalType": "address",
              "name": "buyer",
              "type": "address"
            },
            {
              "internalType": "bool",
              "name": "isSold",
              "type": "bool"
            },
            {
              "internalType": "uint256",
              "name": "price",
              "type": "uint256"
            }
          ],
          "internalType": "struct FilMedia.Content[]",
          "name": "",
          "type": "tuple[]"
        }
      ],
      "stateMutability": "view",
      "type": "function"
    },
    {
      "inputs": [],
      "name": "getArtist",
      "outputs": [
        {
          "components": [
            {
              "internalType": "string",
              "name": "name",
              "type": "string"
            },
            {
              "internalType": "address",
              "name": "owner",
              "type": "address"
            },
            {
              "internalType": "string",
              "name": "image",
              "type": "string"
            },
            {
              "internalType": "string",
              "name": "coverImage",
              "type": "string"
            },
            {
              "internalType": "string",
              "name": "category",
              "type": "string"
            },
            {
              "internalType": "string",
              "name": "description",
              "type": "string"
            },
            {
              "internalType": "string",
              "name": "title",
              "type": "string"
            },
            {
              "internalType": "uint256",
              "name": "listener",
              "type": "uint256"
            },
            {
              "internalType": "uint256",
              "name": "supporters",
              "type": "uint256"
            }
          ],
          "internalType": "struct FilMedia.ArtistStruct[]",
          "name": "",
          "type": "tuple[]"
        }
      ],
      "stateMutability": "view",
      "type": "function"
    },
    {
      "inputs": [],
      "name": "getFollowerCount",
      "outputs": [
        {
          "internalType": "uint256",
          "name": "",
          "type": "uint256"
        }
      ],
      "stateMutability": "view",
      "type": "function"
    },
    {
      "inputs": [],
      "name": "getPlaylist",
      "outputs": [
        {
          "components": [
            {
              "internalType": "uint256",
              "name": "id",
              "type": "uint256"
            },
            {
              "internalType": "string",
              "name": "title",
              "type": "string"
            },
            {
              "internalType": "string",
              "name": "name",
              "type": "string"
            },
            {
              "internalType": "string",
              "name": "file",
              "type": "string"
            },
            {
              "internalType": "string",
              "name": "video",
              "type": "string"
            },
            {
              "internalType": "string",
              "name": "image",
              "type": "string"
            },
            {
              "internalType": "string",
              "name": "category",
              "type": "string"
            },
            {
              "internalType": "string",
              "name": "description",
              "type": "string"
            },
            {
              "internalType": "address",
              "name": "owner",
              "type": "address"
            },
            {
              "internalType": "address",
              "name": "buyer",
              "type": "address"
            },
            {
              "internalType": "bool",
              "name": "isSold",
              "type": "bool"
            },
            {
              "internalType": "uint256",
              "name": "price",
              "type": "uint256"
            }
          ],
          "internalType": "struct FilMedia.Content[]",
          "name": "",
          "type": "tuple[]"
        }
      ],
      "stateMutability": "view",
      "type": "function"
    },
    {
      "inputs": [
        {
          "internalType": "uint256",
          "name": "",
          "type": "uint256"
        }
      ],
      "name": "music",
      "outputs": [
        {
          "internalType": "uint256",
          "name": "id",
          "type": "uint256"
        },
        {
          "internalType": "string",
          "name": "title",
          "type": "string"
        },
        {
          "internalType": "string",
          "name": "name",
          "type": "string"
        },
        {
          "internalType": "string",
          "name": "file",
          "type": "string"
        },
        {
          "internalType": "string",
          "name": "video",
          "type": "string"
        },
        {
          "internalType": "string",
          "name": "image",
          "type": "string"
        },
        {
          "internalType": "string",
          "name": "category",
          "type": "string"
        },
        {
          "internalType": "string",
          "name": "description",
          "type": "string"
        },
        {
          "internalType": "address",
          "name": "owner",
          "type": "address"
        },
        {
          "internalType": "address",
          "name": "buyer",
          "type": "address"
        },
        {
          "internalType": "bool",
          "name": "isSold",
          "type": "bool"
        },
        {
          "internalType": "uint256",
          "name": "price",
          "type": "uint256"
        }
      ],
      "stateMutability": "view",
      "type": "function"
    },
    {
      "inputs": [
        {
          "internalType": "uint256",
          "name": "",
          "type": "uint256"
        }
      ],
      "name": "musics",
      "outputs": [
        {
          "internalType": "uint256",
          "name": "id",
          "type": "uint256"
        },
        {
          "internalType": "string",
          "name": "title",
          "type": "string"
        },
        {
          "internalType": "string",
          "name": "name",
          "type": "string"
        },
        {
          "internalType": "string",
          "name": "file",
          "type": "string"
        },
        {
          "internalType": "string",
          "name": "video",
          "type": "string"
        },
        {
          "internalType": "string",
          "name": "image",
          "type": "string"
        },
        {
          "internalType": "string",
          "name": "category",
          "type": "string"
        },
        {
          "internalType": "string",
          "name": "description",
          "type": "string"
        },
        {
          "internalType": "address",
          "name": "owner",
          "type": "address"
        },
        {
          "internalType": "address",
          "name": "buyer",
          "type": "address"
        },
        {
          "internalType": "bool",
          "name": "isSold",
          "type": "bool"
        },
        {
          "internalType": "uint256",
          "name": "price",
          "type": "uint256"
        }
      ],
      "stateMutability": "view",
      "type": "function"
    },
    {
      "inputs": [],
      "name": "numberOfFollowers",
      "outputs": [
        {
          "internalType": "uint256",
          "name": "",
          "type": "uint256"
        }
      ],
      "stateMutability": "view",
      "type": "function"
    },
    {
      "inputs": [],
      "name": "numberOfMusic",
      "outputs": [
        {
          "internalType": "uint256",
          "name": "",
          "type": "uint256"
        }
      ],
      "stateMutability": "view",
      "type": "function"
    },
    {
      "inputs": [],
      "name": "numberOfPlays",
      "outputs": [
        {
          "internalType": "uint256",
          "name": "",
          "type": "uint256"
        }
      ],
      "stateMutability": "view",
      "type": "function"
    },
    {
      "inputs": [],
      "name": "numberOfSupporter",
      "outputs": [
        {
          "internalType": "uint256",
          "name": "",
          "type": "uint256"
        }
      ],
      "stateMutability": "view",
      "type": "function"
    },
    {
      "inputs": [],
      "name": "owner",
      "outputs": [
        {
          "internalType": "address",
          "name": "",
          "type": "address"
        }
      ],
      "stateMutability": "view",
      "type": "function"
    },
    {
      "inputs": [
        {
          "internalType": "uint256",
          "name": "",
          "type": "uint256"
        }
      ],
      "name": "playlist",
      "outputs": [
        {
          "internalType": "uint256",
          "name": "id",
          "type": "uint256"
        },
        {
          "internalType": "string",
          "name": "title",
          "type": "string"
        },
        {
          "internalType": "string",
          "name": "name",
          "type": "string"
        },
        {
          "internalType": "string",
          "name": "file",
          "type": "string"
        },
        {
          "internalType": "string",
          "name": "video",
          "type": "string"
        },
        {
          "internalType": "string",
          "name": "image",
          "type": "string"
        },
        {
          "internalType": "string",
          "name": "category",
          "type": "string"
        },
        {
          "internalType": "string",
          "name": "description",
          "type": "string"
        },
        {
          "internalType": "address",
          "name": "owner",
          "type": "address"
        },
        {
          "internalType": "address",
          "name": "buyer",
          "type": "address"
        },
        {
          "internalType": "bool",
          "name": "isSold",
          "type": "bool"
        },
        {
          "internalType": "uint256",
          "name": "price",
          "type": "uint256"
        }
      ],
      "stateMutability": "view",
      "type": "function"
    },
    {
      "inputs": [
        {
          "internalType": "address",
          "name": "",
          "type": "address"
        }
      ],
      "name": "playlists",
      "outputs": [
        {
          "internalType": "uint256",
          "name": "",
          "type": "uint256"
        }
      ],
      "stateMutability": "view",
      "type": "function"
    },
    {
      "inputs": [
        {
          "internalType": "uint256",
          "name": "_id",
          "type": "uint256"
        }
      ],
      "name": "purchaseTrack",
      "outputs": [],
      "stateMutability": "payable",
      "type": "function"
    },
    {
      "inputs": [
        {
          "internalType": "address",
          "name": "_artist",
          "type": "address"
        },
        {
          "internalType": "address",
          "name": "_listener",
          "type": "address"
        }
      ],
      "name": "unfollowAnAccount",
      "outputs": [],
      "stateMutability": "nonpayable",
      "type": "function"
    },
    {
      "inputs": [
        {
          "internalType": "address",
          "name": "_owner",
          "type": "address"
        },
        {
          "internalType": "string",
          "name": "data",
          "type": "string"
        },
        {
          "internalType": "uint256",
          "name": "option",
          "type": "uint256"
        }
      ],
      "name": "updateAccount",
      "outputs": [],
      "stateMutability": "nonpayable",
      "type": "function"
    },
    {
      "inputs": [
        {
          "internalType": "string",
          "name": "_title",
          "type": "string"
        },
        {
          "internalType": "string",
          "name": "_name",
          "type": "string"
        },
        {
          "internalType": "string",
          "name": "_file",
          "type": "string"
        },
        {
          "internalType": "string",
          "name": "_video",
          "type": "string"
        },
        {
          "internalType": "string",
          "name": "_image",
          "type": "string"
        },
        {
          "internalType": "string",
          "name": "_category",
          "type": "string"
        },
        {
          "internalType": "string",
          "name": "_description",
          "type": "string"
        },
        {
          "internalType": "uint256",
          "name": "_price",
          "type": "uint256"
        }
      ],
      "name": "uploadContent",
      "outputs": [
        {
          "internalType": "uint256",
          "name": "",
          "type": "uint256"
        }
      ],
      "stateMutability": "nonpayable",
      "type": "function"
    }
  ],
  "bytecode": "0x6080604052600060085534801561001557600080fd5b50614f73806100256000396000f3fe60806040526004361061014b5760003560e01c80637829ae4a116100b65780639eb476671161006f5780639eb47667146104e05780639edc858c14610528578063ad88881b14610544578063b2d1984514610581578063bfe388f6146105aa578063e094826b146105d35761014b565b80637829ae4a146103b15780637c8e000e146103dc5780638da5cb5b1461042457806392e0bad11461044f5780639402b1f51461048c5780639d420acc146104b55761014b565b80634d2a10ed116101085780634d2a10ed1461029657806354315084146102bf578063564a2864146102ea578063567cf437146103325780635e2ee7d41461035b5780636fedc80c146103865761014b565b8063069dab8f146101505780630e62ced514610195578063363cd3ff146101c05780634b1b7b84146101fd5780634c1b64cb146102425780634cd21a711461026b575b600080fd5b34801561015c57600080fd5b5061017760048036038101906101729190613bcc565b6105fe565b60405161018c99989796959493929190613cb1565b60405180910390f35b3480156101a157600080fd5b506101aa61099c565b6040516101b79190613fdb565b60405180910390f35b3480156101cc57600080fd5b506101e760048036038101906101e2919061415e565b610ed5565b6040516101f491906142d8565b60405180910390f35b34801561020957600080fd5b50610224600480360381019061021f91906142f3565b6112df565b60405161023999989796959493929190613cb1565b60405180910390f35b34801561024e57600080fd5b5061026960048036038101906102649190613bcc565b61168d565b005b34801561027757600080fd5b5061028061183f565b60405161028d91906142d8565b60405180910390f35b3480156102a257600080fd5b506102bd60048036038101906102b89190614320565b611845565b005b3480156102cb57600080fd5b506102d4611a7d565b6040516102e19190613fdb565b60405180910390f35b3480156102f657600080fd5b50610311600480360381019061030c91906142f3565b61201d565b6040516103299c9b9a99989796959493929190614464565b60405180910390f35b34801561033e57600080fd5b50610359600480360381019061035491906142f3565b612482565b005b34801561036757600080fd5b506103706127b5565b60405161037d91906142d8565b60405180910390f35b34801561039257600080fd5b5061039b6127bb565b6040516103a891906142d8565b60405180910390f35b3480156103bd57600080fd5b506103c66127c1565b6040516103d391906142d8565b60405180910390f35b3480156103e857600080fd5b5061040360048036038101906103fe91906142f3565b6127cb565b60405161041b9c9b9a99989796959493929190614464565b60405180910390f35b34801561043057600080fd5b50610439612c40565b604051610446919061454f565b60405180910390f35b34801561045b57600080fd5b5061047660048036038101906104719190613bcc565b612c64565b60405161048391906142d8565b60405180910390f35b34801561049857600080fd5b506104b360048036038101906104ae919061456a565b612c7c565b005b3480156104c157600080fd5b506104ca612d2f565b6040516104d791906142d8565b60405180910390f35b3480156104ec57600080fd5b50610507600480360381019061050291906142f3565b612d35565b60405161051f9c9b9a99989796959493929190614464565b60405180910390f35b610542600480360381019061053d91906142f3565b6131aa565b005b34801561055057600080fd5b5061056b6004803603810190610566919061456a565b613429565b60405161057891906145aa565b60405180910390f35b34801561058d57600080fd5b506105a860048036038101906105a3919061456a565b613458565b005b3480156105b657600080fd5b506105d160048036038101906105cc91906145c5565b613502565b005b3480156105df57600080fd5b506105e8613638565b6040516105f591906147de565b60405180910390f35b60066020528060005260406000206000915090508060000180546106219061482f565b80601f016020809104026020016040519081016040528092919081815260200182805461064d9061482f565b801561069a5780601f1061066f5761010080835404028352916020019161069a565b820191906000526020600020905b81548152906001019060200180831161067d57829003601f168201915b5050505050908060010160009054906101000a900473ffffffffffffffffffffffffffffffffffffffff16908060020180546106d59061482f565b80601f01602080910402602001604051908101604052809291908181526020018280546107019061482f565b801561074e5780601f106107235761010080835404028352916020019161074e565b820191906000526020600020905b81548152906001019060200180831161073157829003601f168201915b5050505050908060030180546107639061482f565b80601f016020809104026020016040519081016040528092919081815260200182805461078f9061482f565b80156107dc5780601f106107b1576101008083540402835291602001916107dc565b820191906000526020600020905b8154815290600101906020018083116107bf57829003601f168201915b5050505050908060040180546107f19061482f565b80601f016020809104026020016040519081016040528092919081815260200182805461081d9061482f565b801561086a5780601f1061083f5761010080835404028352916020019161086a565b820191906000526020600020905b81548152906001019060200180831161084d57829003601f168201915b50505050509080600501805461087f9061482f565b80601f01602080910402602001604051908101604052809291908181526020018280546108ab9061482f565b80156108f85780601f106108cd576101008083540402835291602001916108f8565b820191906000526020600020905b8154815290600101906020018083116108db57829003601f168201915b50505050509080600601805461090d9061482f565b80601f01602080910402602001604051908101604052809291908181526020018280546109399061482f565b80156109865780601f1061095b57610100808354040283529160200191610986565b820191906000526020600020905b81548152906001019060200180831161096957829003601f168201915b5050505050908060070154908060080154905089565b60606002805480602002602001604051908101604052809291908181526020016000905b82821015610ecc57838290600052602060002090600b020160405180610180016040529081600082015481526020016001820180546109fe9061482f565b80601f0160208091040260200160405190810160405280929190818152602001828054610a2a9061482f565b8015610a775780601f10610a4c57610100808354040283529160200191610a77565b820191906000526020600020905b815481529060010190602001808311610a5a57829003601f168201915b50505050508152602001600282018054610a909061482f565b80601f0160208091040260200160405190810160405280929190818152602001828054610abc9061482f565b8015610b095780601f10610ade57610100808354040283529160200191610b09565b820191906000526020600020905b815481529060010190602001808311610aec57829003601f168201915b50505050508152602001600382018054610b229061482f565b80601f0160208091040260200160405190810160405280929190818152602001828054610b4e9061482f565b8015610b9b5780601f10610b7057610100808354040283529160200191610b9b565b820191906000526020600020905b815481529060010190602001808311610b7e57829003601f168201915b50505050508152602001600482018054610bb49061482f565b80601f0160208091040260200160405190810160405280929190818152602001828054610be09061482f565b8015610c2d5780601f10610c0257610100808354040283529160200191610c2d565b820191906000526020600020905b815481529060010190602001808311610c1057829003601f168201915b50505050508152602001600582018054610c469061482f565b80601f0160208091040260200160405190810160405280929190818152602001828054610c729061482f565b8015610cbf5780601f10610c9457610100808354040283529160200191610cbf565b820191906000526020600020905b815481529060010190602001808311610ca257829003601f168201915b50505050508152602001600682018054610cd89061482f565b80601f0160208091040260200160405190810160405280929190818152602001828054610d049061482f565b8015610d515780601f10610d2657610100808354040283529160200191610d51565b820191906000526020600020905b815481529060010190602001808311610d3457829003601f168201915b50505050508152602001600782018054610d6a9061482f565b80601f0160208091040260200160405190810160405280929190818152602001828054610d969061482f565b8015610de35780601f10610db857610100808354040283529160200191610de3565b820191906000526020600020905b815481529060010190602001808311610dc657829003601f168201915b505050505081526020016008820160009054906101000a900473ffffffffffffffffffffffffffffffffffffffff1673ffffffffffffffffffffffffffffffffffffffff1673ffffffffffffffffffffffffffffffffffffffff1681526020016009820160009054906101000a900473ffffffffffffffffffffffffffffffffffffffff1673ffffffffffffffffffffffffffffffffffffffff1673ffffffffffffffffffffffffffffffffffffffff1681526020016009820160149054906101000a900460ff16151515158152602001600a82015481525050815260200190600101906109c0565b50505050905090565b60008073ffffffffffffffffffffffffffffffffffffffff163373ffffffffffffffffffffffffffffffffffffffff1603610f45576040517f08c379a0000000000000000000000000000000000000000000000000000000008152600401610f3c906148ac565b60405180910390fd5b6000600560006008548152602001908152602001600020905089816001019081610f6f9190614a78565b5088816002019081610f819190614a78565b5087816003019081610f939190614a78565b5086816004019081610fa59190614a78565b5085816005019081610fb79190614a78565b5084816006019081610fc99190614a78565b5083816007019081610fdb9190614a78565b50338160080160006101000a81548173ffffffffffffffffffffffffffffffffffffffff021916908373ffffffffffffffffffffffffffffffffffffffff16021790555060008160090160006101000a81548173ffffffffffffffffffffffffffffffffffffffff021916908373ffffffffffffffffffffffffffffffffffffffff16021790555060008160090160146101000a81548160ff0219169083151502179055508281600a018190555060038190806001815401808255809150506001900390600052602060002090600b020160009091909190915060008201548160000155600182018160010190816110d39190614b60565b50600282018160020190816110e89190614b60565b50600382018160030190816110fd9190614b60565b50600482018160040190816111129190614b60565b50600582018160050190816111279190614b60565b506006820181600601908161113c9190614b60565b50600782018160070190816111519190614b60565b506008820160009054906101000a900473ffffffffffffffffffffffffffffffffffffffff168160080160006101000a81548173ffffffffffffffffffffffffffffffffffffffff021916908373ffffffffffffffffffffffffffffffffffffffff1602179055506009820160009054906101000a900473ffffffffffffffffffffffffffffffffffffffff168160090160006101000a81548173ffffffffffffffffffffffffffffffffffffffff021916908373ffffffffffffffffffffffffffffffffffffffff1602179055506009820160149054906101000a900460ff168160090160146101000a81548160ff021916908315150217905550600a82015481600a015550506008600081548092919061126c90614c77565b91905055507fa532b5e13b585f1adf97891cdddd82b664c405f6530657f6d31c4398a077a8f56008548b8b8b8b8b8b8b336000808e6040516112b99c9b9a99989796959493929190614464565b60405180910390a160016008546112d09190614cbf565b91505098975050505050505050565b600181815481106112ef57600080fd5b90600052602060002090600902016000915090508060000180546113129061482f565b80601f016020809104026020016040519081016040528092919081815260200182805461133e9061482f565b801561138b5780601f106113605761010080835404028352916020019161138b565b820191906000526020600020905b81548152906001019060200180831161136e57829003601f168201915b5050505050908060010160009054906101000a900473ffffffffffffffffffffffffffffffffffffffff16908060020180546113c69061482f565b80601f01602080910402602001604051908101604052809291908181526020018280546113f29061482f565b801561143f5780601f106114145761010080835404028352916020019161143f565b820191906000526020600020905b81548152906001019060200180831161142257829003601f168201915b5050505050908060030180546114549061482f565b80601f01602080910402602001604051908101604052809291908181526020018280546114809061482f565b80156114cd5780601f106114a2576101008083540402835291602001916114cd565b820191906000526020600020905b8154815290600101906020018083116114b057829003601f168201915b5050505050908060040180546114e29061482f565b80601f016020809104026020016040519081016040528092919081815260200182805461150e9061482f565b801561155b5780601f106115305761010080835404028352916020019161155b565b820191906000526020600020905b81548152906001019060200180831161153e57829003601f168201915b5050505050908060050180546115709061482f565b80601f016020809104026020016040519081016040528092919081815260200182805461159c9061482f565b80156115e95780601f106115be576101008083540402835291602001916115e9565b820191906000526020600020905b8154815290600101906020018083116115cc57829003601f168201915b5050505050908060060180546115fe9061482f565b80601f016020809104026020016040519081016040528092919081815260200182805461162a9061482f565b80156116775780601f1061164c57610100808354040283529160200191611677565b820191906000526020600020905b81548152906001019060200180831161165a57829003601f168201915b5050505050908060070154908060080154905089565b6000600660008373ffffffffffffffffffffffffffffffffffffffff1673ffffffffffffffffffffffffffffffffffffffff16815260200190815260200160002090503373ffffffffffffffffffffffffffffffffffffffff168160010160009054906101000a900473ffffffffffffffffffffffffffffffffffffffff1673ffffffffffffffffffffffffffffffffffffffff1614611762576040517f08c379a000000000000000000000000000000000000000000000000000000000815260040161175990614d3f565b60405180910390fd5b600660008373ffffffffffffffffffffffffffffffffffffffff1673ffffffffffffffffffffffffffffffffffffffff168152602001908152602001600020600080820160006117b29190613a6e565b6001820160006101000a81549073ffffffffffffffffffffffffffffffffffffffff02191690556002820160006117e99190613a6e565b6003820160006117f99190613a6e565b6004820160006118099190613a6e565b6005820160006118199190613a6e565b6006820160006118299190613a6e565b6007820160009055600882016000905550505050565b60085481565b6000600660003373ffffffffffffffffffffffffffffffffffffffff1673ffffffffffffffffffffffffffffffffffffffff1681526020019081526020016000209050868160000190816118999190614a78565b50338160010160006101000a81548173ffffffffffffffffffffffffffffffffffffffff021916908373ffffffffffffffffffffffffffffffffffffffff160217905550858160020190816118ee9190614a78565b50848160030190816119009190614a78565b50838160040190816119129190614a78565b50828160050190816119249190614a78565b50818160060190816119369190614a78565b506009548160070181905550600a54816008018190555060018190806001815401808255809150506001900390600052602060002090600902016000909190919091506000820181600001908161198d9190614b60565b506001820160009054906101000a900473ffffffffffffffffffffffffffffffffffffffff168160010160006101000a81548173ffffffffffffffffffffffffffffffffffffffff021916908373ffffffffffffffffffffffffffffffffffffffff16021790555060028201816002019081611a099190614b60565b5060038201816003019081611a1e9190614b60565b5060048201816004019081611a339190614b60565b5060058201816005019081611a489190614b60565b5060068201816006019081611a5d9190614b60565b506007820154816007015560088201548160080155505050505050505050565b6060600060085467ffffffffffffffff811115611a9d57611a9c614007565b5b604051908082528060200260200182016040528015611ad657816020015b611ac3613aae565b815260200190600190039081611abb5790505b50905060005b600854811015612015576000600560008381526020019081526020016000209050806040518061018001604052908160008201548152602001600182018054611b249061482f565b80601f0160208091040260200160405190810160405280929190818152602001828054611b509061482f565b8015611b9d5780601f10611b7257610100808354040283529160200191611b9d565b820191906000526020600020905b815481529060010190602001808311611b8057829003601f168201915b50505050508152602001600282018054611bb69061482f565b80601f0160208091040260200160405190810160405280929190818152602001828054611be29061482f565b8015611c2f5780601f10611c0457610100808354040283529160200191611c2f565b820191906000526020600020905b815481529060010190602001808311611c1257829003601f168201915b50505050508152602001600382018054611c489061482f565b80601f0160208091040260200160405190810160405280929190818152602001828054611c749061482f565b8015611cc15780601f10611c9657610100808354040283529160200191611cc1565b820191906000526020600020905b815481529060010190602001808311611ca457829003601f168201915b50505050508152602001600482018054611cda9061482f565b80601f0160208091040260200160405190810160405280929190818152602001828054611d069061482f565b8015611d535780601f10611d2857610100808354040283529160200191611d53565b820191906000526020600020905b815481529060010190602001808311611d3657829003601f168201915b50505050508152602001600582018054611d6c9061482f565b80601f0160208091040260200160405190810160405280929190818152602001828054611d989061482f565b8015611de55780601f10611dba57610100808354040283529160200191611de5565b820191906000526020600020905b815481529060010190602001808311611dc857829003601f168201915b50505050508152602001600682018054611dfe9061482f565b80601f0160208091040260200160405190810160405280929190818152602001828054611e2a9061482f565b8015611e775780601f10611e4c57610100808354040283529160200191611e77565b820191906000526020600020905b815481529060010190602001808311611e5a57829003601f168201915b50505050508152602001600782018054611e909061482f565b80601f0160208091040260200160405190810160405280929190818152602001828054611ebc9061482f565b8015611f095780601f10611ede57610100808354040283529160200191611f09565b820191906000526020600020905b815481529060010190602001808311611eec57829003601f168201915b505050505081526020016008820160009054906101000a900473ffffffffffffffffffffffffffffffffffffffff1673ffffffffffffffffffffffffffffffffffffffff1673ffffffffffffffffffffffffffffffffffffffff1681526020016009820160009054906101000a900473ffffffffffffffffffffffffffffffffffffffff1673ffffffffffffffffffffffffffffffffffffffff1673ffffffffffffffffffffffffffffffffffffffff1681526020016009820160149054906101000a900460ff16151515158152602001600a82015481525050838381518110611ff657611ff5614d5f565b5b602002602001018190525050808061200d90614c77565b915050611adc565b508091505090565b60056020528060005260406000206000915090508060000154908060010180546120469061482f565b80601f01602080910402602001604051908101604052809291908181526020018280546120729061482f565b80156120bf5780601f10612094576101008083540402835291602001916120bf565b820191906000526020600020905b8154815290600101906020018083116120a257829003601f168201915b5050505050908060020180546120d49061482f565b80601f01602080910402602001604051908101604052809291908181526020018280546121009061482f565b801561214d5780601f106121225761010080835404028352916020019161214d565b820191906000526020600020905b81548152906001019060200180831161213057829003601f168201915b5050505050908060030180546121629061482f565b80601f016020809104026020016040519081016040528092919081815260200182805461218e9061482f565b80156121db5780601f106121b0576101008083540402835291602001916121db565b820191906000526020600020905b8154815290600101906020018083116121be57829003601f168201915b5050505050908060040180546121f09061482f565b80601f016020809104026020016040519081016040528092919081815260200182805461221c9061482f565b80156122695780601f1061223e57610100808354040283529160200191612269565b820191906000526020600020905b81548152906001019060200180831161224c57829003601f168201915b50505050509080600501805461227e9061482f565b80601f01602080910402602001604051908101604052809291908181526020018280546122aa9061482f565b80156122f75780601f106122cc576101008083540402835291602001916122f7565b820191906000526020600020905b8154815290600101906020018083116122da57829003601f168201915b50505050509080600601805461230c9061482f565b80601f01602080910402602001604051908101604052809291908181526020018280546123389061482f565b80156123855780601f1061235a57610100808354040283529160200191612385565b820191906000526020600020905b81548152906001019060200180831161236857829003601f168201915b50505050509080600701805461239a9061482f565b80601f01602080910402602001604051908101604052809291908181526020018280546123c69061482f565b80156124135780601f106123e857610100808354040283529160200191612413565b820191906000526020600020905b8154815290600101906020018083116123f657829003601f168201915b5050505050908060080160009054906101000a900473ffffffffffffffffffffffffffffffffffffffff16908060090160009054906101000a900473ffffffffffffffffffffffffffffffffffffffff16908060090160149054906101000a900460ff169080600a015490508c565b3373ffffffffffffffffffffffffffffffffffffffff166005600083815260200190815260200160002060090160009054906101000a900473ffffffffffffffffffffffffffffffffffffffff1673ffffffffffffffffffffffffffffffffffffffff1614612526576040517f08c379a000000000000000000000000000000000000000000000000000000000815260040161251d90614dda565b60405180910390fd5b3373ffffffffffffffffffffffffffffffffffffffff166005600083815260200190815260200160002060080160009054906101000a900473ffffffffffffffffffffffffffffffffffffffff1673ffffffffffffffffffffffffffffffffffffffff16036125ca576040517f08c379a00000000000000000000000000000000000000000000000000000000081526004016125c190614dda565b60405180910390fd5b600060056000838152602001908152602001600020905060028190806001815401808255809150506001900390600052602060002090600b0201600090919091909150600082015481600001556001820181600101908161262b9190614b60565b50600282018160020190816126409190614b60565b50600382018160030190816126559190614b60565b506004820181600401908161266a9190614b60565b506005820181600501908161267f9190614b60565b50600682018160060190816126949190614b60565b50600782018160070190816126a99190614b60565b506008820160009054906101000a900473ffffffffffffffffffffffffffffffffffffffff168160080160006101000a81548173ffffffffffffffffffffffffffffffffffffffff021916908373ffffffffffffffffffffffffffffffffffffffff1602179055506009820160009054906101000a900473ffffffffffffffffffffffffffffffffffffffff168160090160006101000a81548173ffffffffffffffffffffffffffffffffffffffff021916908373ffffffffffffffffffffffffffffffffffffffff1602179055506009820160149054906101000a900460ff168160090160146101000a81548160ff021916908315150217905550600a82015481600a015550505050565b600b5481565b600a5481565b6000600954905090565b600281815481106127db57600080fd5b90600052602060002090600b02016000915090508060000154908060010180546128049061482f565b80601f01602080910402602001604051908101604052809291908181526020018280546128309061482f565b801561287d5780601f106128525761010080835404028352916020019161287d565b820191906000526020600020905b81548152906001019060200180831161286057829003601f168201915b5050505050908060020180546128929061482f565b80601f01602080910402602001604051908101604052809291908181526020018280546128be9061482f565b801561290b5780601f106128e05761010080835404028352916020019161290b565b820191906000526020600020905b8154815290600101906020018083116128ee57829003601f168201915b5050505050908060030180546129209061482f565b80601f016020809104026020016040519081016040528092919081815260200182805461294c9061482f565b80156129995780601f1061296e57610100808354040283529160200191612999565b820191906000526020600020905b81548152906001019060200180831161297c57829003601f168201915b5050505050908060040180546129ae9061482f565b80601f01602080910402602001604051908101604052809291908181526020018280546129da9061482f565b8015612a275780601f106129fc57610100808354040283529160200191612a27565b820191906000526020600020905b815481529060010190602001808311612a0a57829003601f168201915b505050505090806005018054612a3c9061482f565b80601f0160208091040260200160405190810160405280929190818152602001828054612a689061482f565b8015612ab55780601f10612a8a57610100808354040283529160200191612ab5565b820191906000526020600020905b815481529060010190602001808311612a9857829003601f168201915b505050505090806006018054612aca9061482f565b80601f0160208091040260200160405190810160405280929190818152602001828054612af69061482f565b8015612b435780601f10612b1857610100808354040283529160200191612b43565b820191906000526020600020905b815481529060010190602001808311612b2657829003601f168201915b505050505090806007018054612b589061482f565b80601f0160208091040260200160405190810160405280929190818152602001828054612b849061482f565b8015612bd15780601f10612ba657610100808354040283529160200191612bd1565b820191906000526020600020905b815481529060010190602001808311612bb457829003601f168201915b5050505050908060080160009054906101000a900473ffffffffffffffffffffffffffffffffffffffff16908060090160009054906101000a900473ffffffffffffffffffffffffffffffffffffffff16908060090160149054906101000a900460ff169080600a015490508c565b60008054906101000a900473ffffffffffffffffffffffffffffffffffffffff1681565b60076020528060005260406000206000915090505481565b6001600460008473ffffffffffffffffffffffffffffffffffffffff1673ffffffffffffffffffffffffffffffffffffffff16815260200190815260200160002060008373ffffffffffffffffffffffffffffffffffffffff1673ffffffffffffffffffffffffffffffffffffffff16815260200190815260200160002060006101000a81548160ff021916908315150217905550600160096000828254612d249190614dfa565b925050819055505050565b60095481565b60038181548110612d4557600080fd5b90600052602060002090600b0201600091509050806000015490806001018054612d6e9061482f565b80601f0160208091040260200160405190810160405280929190818152602001828054612d9a9061482f565b8015612de75780601f10612dbc57610100808354040283529160200191612de7565b820191906000526020600020905b815481529060010190602001808311612dca57829003601f168201915b505050505090806002018054612dfc9061482f565b80601f0160208091040260200160405190810160405280929190818152602001828054612e289061482f565b8015612e755780601f10612e4a57610100808354040283529160200191612e75565b820191906000526020600020905b815481529060010190602001808311612e5857829003601f168201915b505050505090806003018054612e8a9061482f565b80601f0160208091040260200160405190810160405280929190818152602001828054612eb69061482f565b8015612f035780601f10612ed857610100808354040283529160200191612f03565b820191906000526020600020905b815481529060010190602001808311612ee657829003601f168201915b505050505090806004018054612f189061482f565b80601f0160208091040260200160405190810160405280929190818152602001828054612f449061482f565b8015612f915780601f10612f6657610100808354040283529160200191612f91565b820191906000526020600020905b815481529060010190602001808311612f7457829003601f168201915b505050505090806005018054612fa69061482f565b80601f0160208091040260200160405190810160405280929190818152602001828054612fd29061482f565b801561301f5780601f10612ff45761010080835404028352916020019161301f565b820191906000526020600020905b81548152906001019060200180831161300257829003601f168201915b5050505050908060060180546130349061482f565b80601f01602080910402602001604051908101604052809291908181526020018280546130609061482f565b80156130ad5780601f10613082576101008083540402835291602001916130ad565b820191906000526020600020905b81548152906001019060200180831161309057829003601f168201915b5050505050908060070180546130c29061482f565b80601f01602080910402602001604051908101604052809291908181526020018280546130ee9061482f565b801561313b5780601f106131105761010080835404028352916020019161313b565b820191906000526020600020905b81548152906001019060200180831161311e57829003601f168201915b5050505050908060080160009054906101000a900473ffffffffffffffffffffffffffffffffffffffff16908060090160009054906101000a900473ffffffffffffffffffffffffffffffffffffffff16908060090160149054906101000a900460ff169080600a015490508c565b60056000828152602001908152602001600020600a01543414613202576040517f08c379a00000000000000000000000000000000000000000000000000000000081526004016131f990614e7a565b60405180910390fd5b3373ffffffffffffffffffffffffffffffffffffffff166005600083815260200190815260200160002060080160009054906101000a900473ffffffffffffffffffffffffffffffffffffffff1673ffffffffffffffffffffffffffffffffffffffff16036132a6576040517f08c379a000000000000000000000000000000000000000000000000000000000815260040161329d90614ee6565b60405180910390fd5b336005600083815260200190815260200160002060090160006101000a81548173ffffffffffffffffffffffffffffffffffffffff021916908373ffffffffffffffffffffffffffffffffffffffff16021790555060016005600083815260200190815260200160002060090160146101000a81548160ff0219169083151502179055506005600082815260200190815260200160002060080160009054906101000a900473ffffffffffffffffffffffffffffffffffffffff1673ffffffffffffffffffffffffffffffffffffffff166108fc60056000848152602001908152602001600020600a01549081150290604051600060405180830381858888f193505050501580156133bc573d6000803e3d6000fd5b50600a60008154809291906133d090614c77565b91905055507f78a0660bbda86d17037943644187f6f1f73f2f20a3240bf4cf4a56c2a96bcf84813360056000858152602001908152602001600020600a015460405161341e93929190614f06565b60405180910390a150565b60046020528160005260406000206020528060005260406000206000915091509054906101000a900460ff1681565b600460008373ffffffffffffffffffffffffffffffffffffffff1673ffffffffffffffffffffffffffffffffffffffff16815260200190815260200160002060008273ffffffffffffffffffffffffffffffffffffffff1673ffffffffffffffffffffffffffffffffffffffff16815260200190815260200160002060006101000a81549060ff02191690556001600960008282546134f79190614cbf565b925050819055505050565b6000600660008573ffffffffffffffffffffffffffffffffffffffff1673ffffffffffffffffffffffffffffffffffffffff16815260200190815260200160002090503373ffffffffffffffffffffffffffffffffffffffff168160010160009054906101000a900473ffffffffffffffffffffffffffffffffffffffff1673ffffffffffffffffffffffffffffffffffffffff16146135d7576040517f08c379a00000000000000000000000000000000000000000000000000000000081526004016135ce90614d3f565b60405180910390fd5b600082036135f657828160000190816135f09190614a78565b50613632565b60028203613615578281600201908161360f9190614a78565b50613631565b60038203613630578281600301908161362e9190614a78565b505b5b5b50505050565b60606001805480602002602001604051908101604052809291908181526020016000905b82821015613a655783829060005260206000209060090201604051806101200160405290816000820180546136909061482f565b80601f01602080910402602001604051908101604052809291908181526020018280546136bc9061482f565b80156137095780601f106136de57610100808354040283529160200191613709565b820191906000526020600020905b8154815290600101906020018083116136ec57829003601f168201915b505050505081526020016001820160009054906101000a900473ffffffffffffffffffffffffffffffffffffffff1673ffffffffffffffffffffffffffffffffffffffff1673ffffffffffffffffffffffffffffffffffffffff1681526020016002820180546137789061482f565b80601f01602080910402602001604051908101604052809291908181526020018280546137a49061482f565b80156137f15780601f106137c6576101008083540402835291602001916137f1565b820191906000526020600020905b8154815290600101906020018083116137d457829003601f168201915b5050505050815260200160038201805461380a9061482f565b80601f01602080910402602001604051908101604052809291908181526020018280546138369061482f565b80156138835780601f1061385857610100808354040283529160200191613883565b820191906000526020600020905b81548152906001019060200180831161386657829003601f168201915b5050505050815260200160048201805461389c9061482f565b80601f01602080910402602001604051908101604052809291908181526020018280546138c89061482f565b80156139155780601f106138ea57610100808354040283529160200191613915565b820191906000526020600020905b8154815290600101906020018083116138f857829003601f168201915b5050505050815260200160058201805461392e9061482f565b80601f016020809104026020016040519081016040528092919081815260200182805461395a9061482f565b80156139a75780601f1061397c576101008083540402835291602001916139a7565b820191906000526020600020905b81548152906001019060200180831161398a57829003601f168201915b505050505081526020016006820180546139c09061482f565b80601f01602080910402602001604051908101604052809291908181526020018280546139ec9061482f565b8015613a395780601f10613a0e57610100808354040283529160200191613a39565b820191906000526020600020905b815481529060010190602001808311613a1c57829003601f168201915b50505050508152602001600782015481526020016008820154815250508152602001906001019061365c565b50505050905090565b508054613a7a9061482f565b6000825580601f10613a8c5750613aab565b601f016020900490600052602060002090810190613aaa9190613b3d565b5b50565b6040518061018001604052806000815260200160608152602001606081526020016060815260200160608152602001606081526020016060815260200160608152602001600073ffffffffffffffffffffffffffffffffffffffff168152602001600073ffffffffffffffffffffffffffffffffffffffff168152602001600015158152602001600081525090565b5b80821115613b56576000816000905550600101613b3e565b5090565b6000604051905090565b600080fd5b600080fd5b600073ffffffffffffffffffffffffffffffffffffffff82169050919050565b6000613b9982613b6e565b9050919050565b613ba981613b8e565b8114613bb457600080fd5b50565b600081359050613bc681613ba0565b92915050565b600060208284031215613be257613be1613b64565b5b6000613bf084828501613bb7565b91505092915050565b600081519050919050565b600082825260208201905092915050565b60005b83811015613c33578082015181840152602081019050613c18565b60008484015250505050565b6000601f19601f8301169050919050565b6000613c5b82613bf9565b613c658185613c04565b9350613c75818560208601613c15565b613c7e81613c3f565b840191505092915050565b613c9281613b8e565b82525050565b6000819050919050565b613cab81613c98565b82525050565b6000610120820190508181036000830152613ccc818c613c50565b9050613cdb602083018b613c89565b8181036040830152613ced818a613c50565b90508181036060830152613d018189613c50565b90508181036080830152613d158188613c50565b905081810360a0830152613d298187613c50565b905081810360c0830152613d3d8186613c50565b9050613d4c60e0830185613ca2565b613d5a610100830184613ca2565b9a9950505050505050505050565b600081519050919050565b600082825260208201905092915050565b6000819050602082019050919050565b613d9d81613c98565b82525050565b600082825260208201905092915050565b6000613dbf82613bf9565b613dc98185613da3565b9350613dd9818560208601613c15565b613de281613c3f565b840191505092915050565b613df681613b8e565b82525050565b60008115159050919050565b613e1181613dfc565b82525050565b600061018083016000830151613e306000860182613d94565b5060208301518482036020860152613e488282613db4565b91505060408301518482036040860152613e628282613db4565b91505060608301518482036060860152613e7c8282613db4565b91505060808301518482036080860152613e968282613db4565b91505060a083015184820360a0860152613eb08282613db4565b91505060c083015184820360c0860152613eca8282613db4565b91505060e083015184820360e0860152613ee48282613db4565b915050610100830151613efb610100860182613ded565b50610120830151613f10610120860182613ded565b50610140830151613f25610140860182613e08565b50610160830151613f3a610160860182613d94565b508091505092915050565b6000613f518383613e17565b905092915050565b6000602082019050919050565b6000613f7182613d68565b613f7b8185613d73565b935083602082028501613f8d85613d84565b8060005b85811015613fc95784840389528151613faa8582613f45565b9450613fb583613f59565b925060208a01995050600181019050613f91565b50829750879550505050505092915050565b60006020820190508181036000830152613ff58184613f66565b905092915050565b600080fd5b600080fd5b7f4e487b7100000000000000000000000000000000000000000000000000000000600052604160045260246000fd5b61403f82613c3f565b810181811067ffffffffffffffff8211171561405e5761405d614007565b5b80604052505050565b6000614071613b5a565b905061407d8282614036565b919050565b600067ffffffffffffffff82111561409d5761409c614007565b5b6140a682613c3f565b9050602081019050919050565b82818337600083830152505050565b60006140d56140d084614082565b614067565b9050828152602081018484840111156140f1576140f0614002565b5b6140fc8482856140b3565b509392505050565b600082601f83011261411957614118613ffd565b5b81356141298482602086016140c2565b91505092915050565b61413b81613c98565b811461414657600080fd5b50565b60008135905061415881614132565b92915050565b600080600080600080600080610100898b03121561417f5761417e613b64565b5b600089013567ffffffffffffffff81111561419d5761419c613b69565b5b6141a98b828c01614104565b985050602089013567ffffffffffffffff8111156141ca576141c9613b69565b5b6141d68b828c01614104565b975050604089013567ffffffffffffffff8111156141f7576141f6613b69565b5b6142038b828c01614104565b965050606089013567ffffffffffffffff81111561422457614223613b69565b5b6142308b828c01614104565b955050608089013567ffffffffffffffff81111561425157614250613b69565b5b61425d8b828c01614104565b94505060a089013567ffffffffffffffff81111561427e5761427d613b69565b5b61428a8b828c01614104565b93505060c089013567ffffffffffffffff8111156142ab576142aa613b69565b5b6142b78b828c01614104565b92505060e06142c88b828c01614149565b9150509295985092959890939650565b60006020820190506142ed6000830184613ca2565b92915050565b60006020828403121561430957614308613b64565b5b600061431784828501614149565b91505092915050565b60008060008060008060c0878903121561433d5761433c613b64565b5b600087013567ffffffffffffffff81111561435b5761435a613b69565b5b61436789828a01614104565b965050602087013567ffffffffffffffff81111561438857614387613b69565b5b61439489828a01614104565b955050604087013567ffffffffffffffff8111156143b5576143b4613b69565b5b6143c189828a01614104565b945050606087013567ffffffffffffffff8111156143e2576143e1613b69565b5b6143ee89828a01614104565b935050608087013567ffffffffffffffff81111561440f5761440e613b69565b5b61441b89828a01614104565b92505060a087013567ffffffffffffffff81111561443c5761443b613b69565b5b61444889828a01614104565b9150509295509295509295565b61445e81613dfc565b82525050565b60006101808201905061447a600083018f613ca2565b818103602083015261448c818e613c50565b905081810360408301526144a0818d613c50565b905081810360608301526144b4818c613c50565b905081810360808301526144c8818b613c50565b905081810360a08301526144dc818a613c50565b905081810360c08301526144f08189613c50565b905081810360e08301526145048188613c50565b9050614514610100830187613c89565b614522610120830186613c89565b614530610140830185614455565b61453e610160830184613ca2565b9d9c50505050505050505050505050565b60006020820190506145646000830184613c89565b92915050565b6000806040838503121561458157614580613b64565b5b600061458f85828601613bb7565b92505060206145a085828601613bb7565b9150509250929050565b60006020820190506145bf6000830184614455565b92915050565b6000806000606084860312156145de576145dd613b64565b5b60006145ec86828701613bb7565b935050602084013567ffffffffffffffff81111561460d5761460c613b69565b5b61461986828701614104565b925050604061462a86828701614149565b9150509250925092565b600081519050919050565b600082825260208201905092915050565b6000819050602082019050919050565b600061012083016000830151848203600086015261467e8282613db4565b91505060208301516146936020860182613ded565b50604083015184820360408601526146ab8282613db4565b915050606083015184820360608601526146c58282613db4565b915050608083015184820360808601526146df8282613db4565b91505060a083015184820360a08601526146f98282613db4565b91505060c083015184820360c08601526147138282613db4565b91505060e083015161472860e0860182613d94565b5061010083015161473d610100860182613d94565b508091505092915050565b60006147548383614660565b905092915050565b6000602082019050919050565b600061477482614634565b61477e818561463f565b93508360208202850161479085614650565b8060005b858110156147cc57848403895281516147ad8582614748565b94506147b88361475c565b925060208a01995050600181019050614794565b50829750879550505050505092915050565b600060208201905081810360008301526147f88184614769565b905092915050565b7f4e487b7100000000000000000000000000000000000000000000000000000000600052602260045260246000fd5b6000600282049050600182168061484757607f821691505b60208210810361485a57614859614800565b5b50919050565b7f616464726573732063616e7420626520656d7074790000000000000000000000600082015250565b6000614896601583613c04565b91506148a182614860565b602082019050919050565b600060208201905081810360008301526148c581614889565b9050919050565b60008190508160005260206000209050919050565b60006020601f8301049050919050565b600082821b905092915050565b60006008830261492e7fffffffffffffffffffffffffffffffffffffffffffffffffffffffffffffffff826148f1565b61493886836148f1565b95508019841693508086168417925050509392505050565b6000819050919050565b600061497561497061496b84613c98565b614950565b613c98565b9050919050565b6000819050919050565b61498f8361495a565b6149a361499b8261497c565b8484546148fe565b825550505050565b600090565b6149b86149ab565b6149c3818484614986565b505050565b5b818110156149e7576149dc6000826149b0565b6001810190506149c9565b5050565b601f821115614a2c576149fd816148cc565b614a06846148e1565b81016020851015614a15578190505b614a29614a21856148e1565b8301826149c8565b50505b505050565b600082821c905092915050565b6000614a4f60001984600802614a31565b1980831691505092915050565b6000614a688383614a3e565b9150826002028217905092915050565b614a8182613bf9565b67ffffffffffffffff811115614a9a57614a99614007565b5b614aa4825461482f565b614aaf8282856149eb565b600060209050601f831160018114614ae25760008415614ad0578287015190505b614ada8582614a5c565b865550614b42565b601f198416614af0866148cc565b60005b82811015614b1857848901518255600182019150602085019450602081019050614af3565b86831015614b355784890151614b31601f891682614a3e565b8355505b6001600288020188555050505b505050505050565b600081549050614b598161482f565b9050919050565b818103614b6e575050614c46565b614b7782614b4a565b67ffffffffffffffff811115614b9057614b8f614007565b5b614b9a825461482f565b614ba58282856149eb565b6000601f831160018114614bd45760008415614bc2578287015490505b614bcc8582614a5c565b865550614c3f565b601f198416614be2876148cc565b9650614bed866148cc565b60005b82811015614c1557848901548255600182019150600185019450602081019050614bf0565b86831015614c325784890154614c2e601f891682614a3e565b8355505b6001600288020188555050505b5050505050505b565b7f4e487b7100000000000000000000000000000000000000000000000000000000600052601160045260246000fd5b6000614c8282613c98565b91507fffffffffffffffffffffffffffffffffffffffffffffffffffffffffffffffff8203614cb457614cb3614c48565b5b600182019050919050565b6000614cca82613c98565b9150614cd583613c98565b9250828203905081811115614ced57614cec614c48565b5b92915050565b7f6f6e6c79206163636f756e74206f776e65720000000000000000000000000000600082015250565b6000614d29601283613c04565b9150614d3482614cf3565b602082019050919050565b60006020820190508181036000830152614d5881614d1c565b9050919050565b7f4e487b7100000000000000000000000000000000000000000000000000000000600052603260045260246000fd5b7f6f6e6c79207768656e2062726f75676874000000000000000000000000000000600082015250565b6000614dc4601183613c04565b9150614dcf82614d8e565b602082019050919050565b60006020820190508181036000830152614df381614db7565b9050919050565b6000614e0582613c98565b9150614e1083613c98565b9250828201905080821115614e2857614e27614c48565b5b92915050565b7f496e636f7272656374207061796d656e7420616d6f756e742e00000000000000600082015250565b6000614e64601983613c04565b9150614e6f82614e2e565b602082019050919050565b60006020820190508181036000830152614e9381614e57565b9050919050565b7f4974656d20616c72656164792062656c6f6e677320746f20796f752e00000000600082015250565b6000614ed0601c83613c04565b9150614edb82614e9a565b602082019050919050565b60006020820190508181036000830152614eff81614ec3565b9050919050565b6000606082019050614f1b6000830186613ca2565b614f286020830185613c89565b614f356040830184613ca2565b94935050505056fea2646970667358221220ff5c601d1561f34f43d693cce26ac058ab96a55012d5c5b88bc29b9b2c259d9364736f6c63430008110033",
  "linkReferences": {},
  "deployedLinkReferences": {}
}