{
  "_format": "hh-sol-artifact-1",
  "contractName": "FilProfile",
  "sourceName": "contracts/FilMedia_Contract/FilProfile.sol",
  "abi": [
    {
      "inputs": [],
      "stateMutability": "nonpayable",
      "type": "constructor"
    },
    {
      "anonymous": false,
      "inputs": [
        {
          "indexed": true,
          "internalType": "address",
          "name": "owner",
          "type": "address"
        },
        {
          "indexed": true,
          "internalType": "address",
          "name": "approved",
          "type": "address"
        },
        {
          "indexed": true,
          "internalType": "uint256",
          "name": "tokenId",
          "type": "uint256"
        }
      ],
      "name": "Approval",
      "type": "event"
    },
    {
      "anonymous": false,
      "inputs": [
        {
          "indexed": true,
          "internalType": "address",
          "name": "owner",
          "type": "address"
        },
        {
          "indexed": true,
          "internalType": "address",
          "name": "operator",
          "type": "address"
        },
        {
          "indexed": false,
          "internalType": "bool",
          "name": "approved",
          "type": "bool"
        }
      ],
      "name": "ApprovalForAll",
      "type": "event"
    },
    {
      "anonymous": false,
      "inputs": [
        {
          "indexed": true,
          "internalType": "address",
          "name": "previousOwner",
          "type": "address"
        },
        {
          "indexed": true,
          "internalType": "address",
          "name": "newOwner",
          "type": "address"
        }
      ],
      "name": "OwnershipTransferred",
      "type": "event"
    },
    {
      "anonymous": false,
      "inputs": [
        {
          "indexed": true,
          "internalType": "address",
          "name": "from",
          "type": "address"
        },
        {
          "indexed": true,
          "internalType": "address",
          "name": "to",
          "type": "address"
        },
        {
          "indexed": true,
          "internalType": "uint256",
          "name": "tokenId",
          "type": "uint256"
        }
      ],
      "name": "Transfer",
      "type": "event"
    },
    {
      "inputs": [
        {
          "internalType": "address",
          "name": "to",
          "type": "address"
        },
        {
          "internalType": "uint256",
          "name": "tokenId",
          "type": "uint256"
        }
      ],
      "name": "approve",
      "outputs": [],
      "stateMutability": "nonpayable",
      "type": "function"
    },
    {
      "inputs": [
        {
          "internalType": "address",
          "name": "owner",
          "type": "address"
        }
      ],
      "name": "balanceOf",
      "outputs": [
        {
          "internalType": "uint256",
          "name": "",
          "type": "uint256"
        }
      ],
      "stateMutability": "view",
      "type": "function"
    },
    {
      "inputs": [],
      "name": "getAlltoken",
      "outputs": [
        {
          "components": [
            {
              "internalType": "uint256",
              "name": "id",
              "type": "uint256"
            },
            {
              "internalType": "string",
              "name": "uri",
              "type": "string"
            },
            {
              "internalType": "string",
              "name": "space",
              "type": "string"
            }
          ],
          "internalType": "struct FilProfile.RenderToken[]",
          "name": "",
          "type": "tuple[]"
        }
      ],
      "stateMutability": "view",
      "type": "function"
    },
    {
      "inputs": [
        {
          "internalType": "uint256",
          "name": "tokenId",
          "type": "uint256"
        }
      ],
      "name": "getApproved",
      "outputs": [
        {
          "internalType": "address",
          "name": "",
          "type": "address"
        }
      ],
      "stateMutability": "view",
      "type": "function"
    },
    {
      "inputs": [
        {
          "internalType": "address",
          "name": "owner",
          "type": "address"
        },
        {
          "internalType": "address",
          "name": "operator",
          "type": "address"
        }
      ],
      "name": "isApprovedForAll",
      "outputs": [
        {
          "internalType": "bool",
          "name": "",
          "type": "bool"
        }
      ],
      "stateMutability": "view",
      "type": "function"
    },
    {
      "inputs": [
        {
          "internalType": "string",
          "name": "_uri",
          "type": "string"
        }
      ],
      "name": "mint",
      "outputs": [
        {
          "internalType": "uint256",
          "name": "",
          "type": "uint256"
        }
      ],
      "stateMutability": "nonpayable",
      "type": "function"
    },
    {
      "inputs": [],
      "name": "name",
      "outputs": [
        {
          "internalType": "string",
          "name": "",
          "type": "string"
        }
      ],
      "stateMutability": "view",
      "type": "function"
    },
    {
      "inputs": [],
      "name": "owner",
      "outputs": [
        {
          "internalType": "address",
          "name": "",
          "type": "address"
        }
      ],
      "stateMutability": "view",
      "type": "function"
    },
    {
      "inputs": [
        {
          "internalType": "uint256",
          "name": "tokenId",
          "type": "uint256"
        }
      ],
      "name": "ownerOf",
      "outputs": [
        {
          "internalType": "address",
          "name": "",
          "type": "address"
        }
      ],
      "stateMutability": "view",
      "type": "function"
    },
    {
      "inputs": [],
      "name": "renounceOwnership",
      "outputs": [],
      "stateMutability": "nonpayable",
      "type": "function"
    },
    {
      "inputs": [
        {
          "internalType": "address",
          "name": "from",
          "type": "address"
        },
        {
          "internalType": "address",
          "name": "to",
          "type": "address"
        },
        {
          "internalType": "uint256",
          "name": "tokenId",
          "type": "uint256"
        }
      ],
      "name": "safeTransferFrom",
      "outputs": [],
      "stateMutability": "nonpayable",
      "type": "function"
    },
    {
      "inputs": [
        {
          "internalType": "address",
          "name": "from",
          "type": "address"
        },
        {
          "internalType": "address",
          "name": "to",
          "type": "address"
        },
        {
          "internalType": "uint256",
          "name": "tokenId",
          "type": "uint256"
        },
        {
          "internalType": "bytes",
          "name": "data",
          "type": "bytes"
        }
      ],
      "name": "safeTransferFrom",
      "outputs": [],
      "stateMutability": "nonpayable",
      "type": "function"
    },
    {
      "inputs": [
        {
          "internalType": "address",
          "name": "operator",
          "type": "address"
        },
        {
          "internalType": "bool",
          "name": "approved",
          "type": "bool"
        }
      ],
      "name": "setApprovalForAll",
      "outputs": [],
      "stateMutability": "nonpayable",
      "type": "function"
    },
    {
      "inputs": [
        {
          "internalType": "bytes4",
          "name": "interfaceId",
          "type": "bytes4"
        }
      ],
      "name": "supportsInterface",
      "outputs": [
        {
          "internalType": "bool",
          "name": "",
          "type": "bool"
        }
      ],
      "stateMutability": "view",
      "type": "function"
    },
    {
      "inputs": [],
      "name": "symbol",
      "outputs": [
        {
          "internalType": "string",
          "name": "",
          "type": "string"
        }
      ],
      "stateMutability": "view",
      "type": "function"
    },
    {
      "inputs": [
        {
          "internalType": "uint256",
          "name": "tokenId",
          "type": "uint256"
        }
      ],
      "name": "tokenURI",
      "outputs": [
        {
          "internalType": "string",
          "name": "",
          "type": "string"
        }
      ],
      "stateMutability": "view",
      "type": "function"
    },
    {
      "inputs": [
        {
          "internalType": "address",
          "name": "from",
          "type": "address"
        },
        {
          "internalType": "address",
          "name": "to",
          "type": "address"
        },
        {
          "internalType": "uint256",
          "name": "tokenId",
          "type": "uint256"
        }
      ],
      "name": "transferFrom",
      "outputs": [],
      "stateMutability": "nonpayable",
      "type": "function"
    },
    {
      "inputs": [
        {
          "internalType": "address",
          "name": "newOwner",
          "type": "address"
        }
      ],
      "name": "transferOwnership",
      "outputs": [],
      "stateMutability": "nonpayable",
      "type": "function"
    }
  ],
  "bytecode": "0x60806040523480156200001157600080fd5b506040518060400160405280601081526020017f50726f66696c65496d6167654e667473000000000000000000000000000000008152506040518060400160405280600381526020017f50494e000000000000000000000000000000000000000000000000000000000081525081600090816200008f919062000412565b508060019081620000a1919062000412565b505050620000c4620000b8620000ca60201b60201c565b620000d260201b60201c565b620004f9565b600033905090565b6000600660009054906101000a900473ffffffffffffffffffffffffffffffffffffffff16905081600660006101000a81548173ffffffffffffffffffffffffffffffffffffffff021916908373ffffffffffffffffffffffffffffffffffffffff1602179055508173ffffffffffffffffffffffffffffffffffffffff168173ffffffffffffffffffffffffffffffffffffffff167f8be0079c531659141344cd1fd0a4f28419497f9722a3daafe3b4186f6b6457e060405160405180910390a35050565b600081519050919050565b7f4e487b7100000000000000000000000000000000000000000000000000000000600052604160045260246000fd5b7f4e487b7100000000000000000000000000000000000000000000000000000000600052602260045260246000fd5b600060028204905060018216806200021a57607f821691505b60208210810362000230576200022f620001d2565b5b50919050565b60008190508160005260206000209050919050565b60006020601f8301049050919050565b600082821b905092915050565b6000600883026200029a7fffffffffffffffffffffffffffffffffffffffffffffffffffffffffffffffff826200025b565b620002a686836200025b565b95508019841693508086168417925050509392505050565b6000819050919050565b6000819050919050565b6000620002f3620002ed620002e784620002be565b620002c8565b620002be565b9050919050565b6000819050919050565b6200030f83620002d2565b620003276200031e82620002fa565b84845462000268565b825550505050565b600090565b6200033e6200032f565b6200034b81848462000304565b505050565b5b8181101562000373576200036760008262000334565b60018101905062000351565b5050565b601f821115620003c2576200038c8162000236565b62000397846200024b565b81016020851015620003a7578190505b620003bf620003b6856200024b565b83018262000350565b50505b505050565b600082821c905092915050565b6000620003e760001984600802620003c7565b1980831691505092915050565b6000620004028383620003d4565b9150826002028217905092915050565b6200041d8262000198565b67ffffffffffffffff811115620004395762000438620001a3565b5b62000445825462000201565b6200045282828562000377565b600060209050601f8311600181146200048a576000841562000475578287015190505b620004818582620003f4565b865550620004f1565b601f1984166200049a8662000236565b60005b82811015620004c4578489015182556001820191506020850194506020810190506200049d565b86831015620004e45784890151620004e0601f891682620003d4565b8355505b6001600288020188555050505b505050505050565b612f0480620005096000396000f3fe608060405234801561001057600080fd5b50600436106101165760003560e01c8063715018a6116100a2578063b88d4fde11610071578063b88d4fde146102cd578063c87b56dd146102e9578063d85d3d2714610319578063e985e9c514610349578063f2fde38b1461037957610116565b8063715018a61461026b5780638da5cb5b1461027557806395d89b4114610293578063a22cb465146102b157610116565b806323b872dd116100e957806323b872dd146101b557806328904431146101d157806342842e0e146101ef5780636352211e1461020b57806370a082311461023b57610116565b806301ffc9a71461011b57806306fdde031461014b578063081812fc14610169578063095ea7b314610199575b600080fd5b61013560048036038101906101309190611b1b565b610395565b6040516101429190611b63565b60405180910390f35b610153610477565b6040516101609190611c0e565b60405180910390f35b610183600480360381019061017e9190611c66565b610509565b6040516101909190611cd4565b60405180910390f35b6101b360048036038101906101ae9190611d1b565b61054f565b005b6101cf60048036038101906101ca9190611d5b565b610666565b005b6101d96106c6565b6040516101e69190611f20565b60405180910390f35b61020960048036038101906102049190611d5b565b6107df565b005b61022560048036038101906102209190611c66565b6107ff565b6040516102329190611cd4565b60405180910390f35b61025560048036038101906102509190611f42565b610885565b6040516102629190611f7e565b60405180910390f35b61027361093c565b005b61027d610950565b60405161028a9190611cd4565b60405180910390f35b61029b61097a565b6040516102a89190611c0e565b60405180910390f35b6102cb60048036038101906102c69190611fc5565b610a0c565b005b6102e760048036038101906102e2919061213a565b610a22565b005b61030360048036038101906102fe9190611c66565b610a84565b6040516103109190611c0e565b60405180910390f35b610333600480360381019061032e919061225e565b610b77565b6040516103409190611f7e565b60405180910390f35b610363600480360381019061035e91906122a7565b610bad565b6040516103709190611b63565b60405180910390f35b610393600480360381019061038e9190611f42565b610c41565b005b60007f80ac58cd000000000000000000000000000000000000000000000000000000007bffffffffffffffffffffffffffffffffffffffffffffffffffffffff1916827bffffffffffffffffffffffffffffffffffffffffffffffffffffffff1916148061046057507f5b5e139f000000000000000000000000000000000000000000000000000000007bffffffffffffffffffffffffffffffffffffffffffffffffffffffff1916827bffffffffffffffffffffffffffffffffffffffffffffffffffffffff1916145b80610470575061046f82610cc4565b5b9050919050565b60606000805461048690612316565b80601f01602080910402602001604051908101604052809291908181526020018280546104b290612316565b80156104ff5780601f106104d4576101008083540402835291602001916104ff565b820191906000526020600020905b8154815290600101906020018083116104e257829003601f168201915b5050505050905090565b600061051482610d2e565b6004600083815260200190815260200160002060009054906101000a900473ffffffffffffffffffffffffffffffffffffffff169050919050565b600061055a826107ff565b90508073ffffffffffffffffffffffffffffffffffffffff168373ffffffffffffffffffffffffffffffffffffffff16036105ca576040517f08c379a00000000000000000000000000000000000000000000000000000000081526004016105c1906123b9565b60405180910390fd5b8073ffffffffffffffffffffffffffffffffffffffff166105e9610d79565b73ffffffffffffffffffffffffffffffffffffffff161480610618575061061781610612610d79565b610bad565b5b610657576040517f08c379a000000000000000000000000000000000000000000000000000000000815260040161064e9061244b565b60405180910390fd5b6106618383610d81565b505050565b610677610671610d79565b82610e3a565b6106b6576040517f08c379a00000000000000000000000000000000000000000000000000000000081526004016106ad906124dd565b60405180910390fd5b6106c1838383610ecf565b505050565b606060006106d460076111c8565b905060008167ffffffffffffffff8111156106f2576106f161200f565b5b60405190808252806020026020018201604052801561072b57816020015b610718611a8e565b8152602001906001900390816107105790505b50905060005b8281116107d657610741816111d6565b156107c357600061075182610a84565b905060405180606001604052808381526020018281526020016040518060400160405280600181526020017f20000000000000000000000000000000000000000000000000000000000000008152508152508383815181106107b6576107b56124fd565b5b6020026020010181905250505b80806107ce9061255b565b915050610731565b50809250505090565b6107fa83838360405180602001604052806000815250610a22565b505050565b60008061080b83611217565b9050600073ffffffffffffffffffffffffffffffffffffffff168173ffffffffffffffffffffffffffffffffffffffff160361087c576040517f08c379a0000000000000000000000000000000000000000000000000000000008152600401610873906125ef565b60405180910390fd5b80915050919050565b60008073ffffffffffffffffffffffffffffffffffffffff168273ffffffffffffffffffffffffffffffffffffffff16036108f5576040517f08c379a00000000000000000000000000000000000000000000000000000000081526004016108ec90612681565b60405180910390fd5b600360008373ffffffffffffffffffffffffffffffffffffffff1673ffffffffffffffffffffffffffffffffffffffff168152602001908152602001600020549050919050565b610944611254565b61094e60006112d2565b565b6000600660009054906101000a900473ffffffffffffffffffffffffffffffffffffffff16905090565b60606001805461098990612316565b80601f01602080910402602001604051908101604052809291908181526020018280546109b590612316565b8015610a025780601f106109d757610100808354040283529160200191610a02565b820191906000526020600020905b8154815290600101906020018083116109e557829003601f168201915b5050505050905090565b610a1e610a17610d79565b8383611398565b5050565b610a33610a2d610d79565b83610e3a565b610a72576040517f08c379a0000000000000000000000000000000000000000000000000000000008152600401610a69906124dd565b60405180910390fd5b610a7e84848484611504565b50505050565b6060610a8f826111d6565b610ace576040517f08c379a0000000000000000000000000000000000000000000000000000000008152600401610ac5906126ed565b60405180910390fd5b6000600860008481526020019081526020016000208054610aee90612316565b80601f0160208091040260200160405190810160405280929190818152602001828054610b1a90612316565b8015610b675780601f10610b3c57610100808354040283529160200191610b67565b820191906000526020600020905b815481529060010190602001808311610b4a57829003601f168201915b5050505050905080915050919050565b600080610b8460076111c8565b9050610b903382611560565b610b9a818461177d565b610ba460076117a2565b80915050919050565b6000600560008473ffffffffffffffffffffffffffffffffffffffff1673ffffffffffffffffffffffffffffffffffffffff16815260200190815260200160002060008373ffffffffffffffffffffffffffffffffffffffff1673ffffffffffffffffffffffffffffffffffffffff16815260200190815260200160002060009054906101000a900460ff16905092915050565b610c49611254565b600073ffffffffffffffffffffffffffffffffffffffff168173ffffffffffffffffffffffffffffffffffffffff1603610cb8576040517f08c379a0000000000000000000000000000000000000000000000000000000008152600401610caf9061277f565b60405180910390fd5b610cc1816112d2565b50565b60007f01ffc9a7000000000000000000000000000000000000000000000000000000007bffffffffffffffffffffffffffffffffffffffffffffffffffffffff1916827bffffffffffffffffffffffffffffffffffffffffffffffffffffffff1916149050919050565b610d37816111d6565b610d76576040517f08c379a0000000000000000000000000000000000000000000000000000000008152600401610d6d906125ef565b60405180910390fd5b50565b600033905090565b816004600083815260200190815260200160002060006101000a81548173ffffffffffffffffffffffffffffffffffffffff021916908373ffffffffffffffffffffffffffffffffffffffff160217905550808273ffffffffffffffffffffffffffffffffffffffff16610df4836107ff565b73ffffffffffffffffffffffffffffffffffffffff167f8c5be1e5ebec7d5bd14f71427d1e84f3dd0314c0f7b2291e5b200ac8c7c3b92560405160405180910390a45050565b600080610e46836107ff565b90508073ffffffffffffffffffffffffffffffffffffffff168473ffffffffffffffffffffffffffffffffffffffff161480610e885750610e878185610bad565b5b80610ec657508373ffffffffffffffffffffffffffffffffffffffff16610eae84610509565b73ffffffffffffffffffffffffffffffffffffffff16145b91505092915050565b8273ffffffffffffffffffffffffffffffffffffffff16610eef826107ff565b73ffffffffffffffffffffffffffffffffffffffff1614610f45576040517f08c379a0000000000000000000000000000000000000000000000000000000008152600401610f3c90612811565b60405180910390fd5b600073ffffffffffffffffffffffffffffffffffffffff168273ffffffffffffffffffffffffffffffffffffffff1603610fb4576040517f08c379a0000000000000000000000000000000000000000000000000000000008152600401610fab906128a3565b60405180910390fd5b610fc183838360016117b8565b8273ffffffffffffffffffffffffffffffffffffffff16610fe1826107ff565b73ffffffffffffffffffffffffffffffffffffffff1614611037576040517f08c379a000000000000000000000000000000000000000000000000000000000815260040161102e90612811565b60405180910390fd5b6004600082815260200190815260200160002060006101000a81549073ffffffffffffffffffffffffffffffffffffffff02191690556001600360008573ffffffffffffffffffffffffffffffffffffffff1673ffffffffffffffffffffffffffffffffffffffff168152602001908152602001600020600082825403925050819055506001600360008473ffffffffffffffffffffffffffffffffffffffff1673ffffffffffffffffffffffffffffffffffffffff16815260200190815260200160002060008282540192505081905550816002600083815260200190815260200160002060006101000a81548173ffffffffffffffffffffffffffffffffffffffff021916908373ffffffffffffffffffffffffffffffffffffffff160217905550808273ffffffffffffffffffffffffffffffffffffffff168473ffffffffffffffffffffffffffffffffffffffff167fddf252ad1be2c89b69c2b068fc378daa952ba7f163c4a11628f55a4df523b3ef60405160405180910390a46111c383838360016118de565b505050565b600081600001549050919050565b60008073ffffffffffffffffffffffffffffffffffffffff166111f883611217565b73ffffffffffffffffffffffffffffffffffffffff1614159050919050565b60006002600083815260200190815260200160002060009054906101000a900473ffffffffffffffffffffffffffffffffffffffff169050919050565b61125c610d79565b73ffffffffffffffffffffffffffffffffffffffff1661127a610950565b73ffffffffffffffffffffffffffffffffffffffff16146112d0576040517f08c379a00000000000000000000000000000000000000000000000000000000081526004016112c79061290f565b60405180910390fd5b565b6000600660009054906101000a900473ffffffffffffffffffffffffffffffffffffffff16905081600660006101000a81548173ffffffffffffffffffffffffffffffffffffffff021916908373ffffffffffffffffffffffffffffffffffffffff1602179055508173ffffffffffffffffffffffffffffffffffffffff168173ffffffffffffffffffffffffffffffffffffffff167f8be0079c531659141344cd1fd0a4f28419497f9722a3daafe3b4186f6b6457e060405160405180910390a35050565b8173ffffffffffffffffffffffffffffffffffffffff168373ffffffffffffffffffffffffffffffffffffffff1603611406576040517f08c379a00000000000000000000000000000000000000000000000000000000081526004016113fd9061297b565b60405180910390fd5b80600560008573ffffffffffffffffffffffffffffffffffffffff1673ffffffffffffffffffffffffffffffffffffffff16815260200190815260200160002060008473ffffffffffffffffffffffffffffffffffffffff1673ffffffffffffffffffffffffffffffffffffffff16815260200190815260200160002060006101000a81548160ff0219169083151502179055508173ffffffffffffffffffffffffffffffffffffffff168373ffffffffffffffffffffffffffffffffffffffff167f17307eab39ab6107e8899845ad3d59bd9653f200f220920489ca2b5937696c31836040516114f79190611b63565b60405180910390a3505050565b61150f848484610ecf565b61151b848484846118e4565b61155a576040517f08c379a000000000000000000000000000000000000000000000000000000000815260040161155190612a0d565b60405180910390fd5b50505050565b600073ffffffffffffffffffffffffffffffffffffffff168273ffffffffffffffffffffffffffffffffffffffff16036115cf576040517f08c379a00000000000000000000000000000000000000000000000000000000081526004016115c690612a79565b60405180910390fd5b6115d8816111d6565b15611618576040517f08c379a000000000000000000000000000000000000000000000000000000000815260040161160f90612ae5565b60405180910390fd5b6116266000838360016117b8565b61162f816111d6565b1561166f576040517f08c379a000000000000000000000000000000000000000000000000000000000815260040161166690612ae5565b60405180910390fd5b6001600360008473ffffffffffffffffffffffffffffffffffffffff1673ffffffffffffffffffffffffffffffffffffffff16815260200190815260200160002060008282540192505081905550816002600083815260200190815260200160002060006101000a81548173ffffffffffffffffffffffffffffffffffffffff021916908373ffffffffffffffffffffffffffffffffffffffff160217905550808273ffffffffffffffffffffffffffffffffffffffff16600073ffffffffffffffffffffffffffffffffffffffff167fddf252ad1be2c89b69c2b068fc378daa952ba7f163c4a11628f55a4df523b3ef60405160405180910390a46117796000838360016118de565b5050565b8060086000848152602001908152602001600020908161179d9190612cb1565b505050565b6001816000016000828254019250508190555050565b60018111156118d857600073ffffffffffffffffffffffffffffffffffffffff168473ffffffffffffffffffffffffffffffffffffffff161461184c5780600360008673ffffffffffffffffffffffffffffffffffffffff1673ffffffffffffffffffffffffffffffffffffffff16815260200190815260200160002060008282546118449190612d83565b925050819055505b600073ffffffffffffffffffffffffffffffffffffffff168373ffffffffffffffffffffffffffffffffffffffff16146118d75780600360008573ffffffffffffffffffffffffffffffffffffffff1673ffffffffffffffffffffffffffffffffffffffff16815260200190815260200160002060008282546118cf9190612db7565b925050819055505b5b50505050565b50505050565b60006119058473ffffffffffffffffffffffffffffffffffffffff16611a6b565b15611a5e578373ffffffffffffffffffffffffffffffffffffffff1663150b7a0261192e610d79565b8786866040518563ffffffff1660e01b81526004016119509493929190612e40565b6020604051808303816000875af192505050801561198c57506040513d601f19601f820116820180604052508101906119899190612ea1565b60015b611a0e573d80600081146119bc576040519150601f19603f3d011682016040523d82523d6000602084013e6119c1565b606091505b506000815103611a06576040517f08c379a00000000000000000000000000000000000000000000000000000000081526004016119fd90612a0d565b60405180910390fd5b805181602001fd5b63150b7a0260e01b7bffffffffffffffffffffffffffffffffffffffffffffffffffffffff1916817bffffffffffffffffffffffffffffffffffffffffffffffffffffffff191614915050611a63565b600190505b949350505050565b6000808273ffffffffffffffffffffffffffffffffffffffff163b119050919050565b60405180606001604052806000815260200160608152602001606081525090565b6000604051905090565b600080fd5b600080fd5b60007fffffffff0000000000000000000000000000000000000000000000000000000082169050919050565b611af881611ac3565b8114611b0357600080fd5b50565b600081359050611b1581611aef565b92915050565b600060208284031215611b3157611b30611ab9565b5b6000611b3f84828501611b06565b91505092915050565b60008115159050919050565b611b5d81611b48565b82525050565b6000602082019050611b786000830184611b54565b92915050565b600081519050919050565b600082825260208201905092915050565b60005b83811015611bb8578082015181840152602081019050611b9d565b60008484015250505050565b6000601f19601f8301169050919050565b6000611be082611b7e565b611bea8185611b89565b9350611bfa818560208601611b9a565b611c0381611bc4565b840191505092915050565b60006020820190508181036000830152611c288184611bd5565b905092915050565b6000819050919050565b611c4381611c30565b8114611c4e57600080fd5b50565b600081359050611c6081611c3a565b92915050565b600060208284031215611c7c57611c7b611ab9565b5b6000611c8a84828501611c51565b91505092915050565b600073ffffffffffffffffffffffffffffffffffffffff82169050919050565b6000611cbe82611c93565b9050919050565b611cce81611cb3565b82525050565b6000602082019050611ce96000830184611cc5565b92915050565b611cf881611cb3565b8114611d0357600080fd5b50565b600081359050611d1581611cef565b92915050565b60008060408385031215611d3257611d31611ab9565b5b6000611d4085828601611d06565b9250506020611d5185828601611c51565b9150509250929050565b600080600060608486031215611d7457611d73611ab9565b5b6000611d8286828701611d06565b9350506020611d9386828701611d06565b9250506040611da486828701611c51565b9150509250925092565b600081519050919050565b600082825260208201905092915050565b6000819050602082019050919050565b611de381611c30565b82525050565b600082825260208201905092915050565b6000611e0582611b7e565b611e0f8185611de9565b9350611e1f818560208601611b9a565b611e2881611bc4565b840191505092915050565b6000606083016000830151611e4b6000860182611dda565b5060208301518482036020860152611e638282611dfa565b91505060408301518482036040860152611e7d8282611dfa565b9150508091505092915050565b6000611e968383611e33565b905092915050565b6000602082019050919050565b6000611eb682611dae565b611ec08185611db9565b935083602082028501611ed285611dca565b8060005b85811015611f0e5784840389528151611eef8582611e8a565b9450611efa83611e9e565b925060208a01995050600181019050611ed6565b50829750879550505050505092915050565b60006020820190508181036000830152611f3a8184611eab565b905092915050565b600060208284031215611f5857611f57611ab9565b5b6000611f6684828501611d06565b91505092915050565b611f7881611c30565b82525050565b6000602082019050611f936000830184611f6f565b92915050565b611fa281611b48565b8114611fad57600080fd5b50565b600081359050611fbf81611f99565b92915050565b60008060408385031215611fdc57611fdb611ab9565b5b6000611fea85828601611d06565b9250506020611ffb85828601611fb0565b9150509250929050565b600080fd5b600080fd5b7f4e487b7100000000000000000000000000000000000000000000000000000000600052604160045260246000fd5b61204782611bc4565b810181811067ffffffffffffffff821117156120665761206561200f565b5b80604052505050565b6000612079611aaf565b9050612085828261203e565b919050565b600067ffffffffffffffff8211156120a5576120a461200f565b5b6120ae82611bc4565b9050602081019050919050565b82818337600083830152505050565b60006120dd6120d88461208a565b61206f565b9050828152602081018484840111156120f9576120f861200a565b5b6121048482856120bb565b509392505050565b600082601f83011261212157612120612005565b5b81356121318482602086016120ca565b91505092915050565b6000806000806080858703121561215457612153611ab9565b5b600061216287828801611d06565b945050602061217387828801611d06565b935050604061218487828801611c51565b925050606085013567ffffffffffffffff8111156121a5576121a4611abe565b5b6121b18782880161210c565b91505092959194509250565b600067ffffffffffffffff8211156121d8576121d761200f565b5b6121e182611bc4565b9050602081019050919050565b60006122016121fc846121bd565b61206f565b90508281526020810184848401111561221d5761221c61200a565b5b6122288482856120bb565b509392505050565b600082601f83011261224557612244612005565b5b81356122558482602086016121ee565b91505092915050565b60006020828403121561227457612273611ab9565b5b600082013567ffffffffffffffff81111561229257612291611abe565b5b61229e84828501612230565b91505092915050565b600080604083850312156122be576122bd611ab9565b5b60006122cc85828601611d06565b92505060206122dd85828601611d06565b9150509250929050565b7f4e487b7100000000000000000000000000000000000000000000000000000000600052602260045260246000fd5b6000600282049050600182168061232e57607f821691505b602082108103612341576123406122e7565b5b50919050565b7f4552433732313a20617070726f76616c20746f2063757272656e74206f776e6560008201527f7200000000000000000000000000000000000000000000000000000000000000602082015250565b60006123a3602183611b89565b91506123ae82612347565b604082019050919050565b600060208201905081810360008301526123d281612396565b9050919050565b7f4552433732313a20617070726f76652063616c6c6572206973206e6f7420746f60008201527f6b656e206f776e6572206f7220617070726f76656420666f7220616c6c000000602082015250565b6000612435603d83611b89565b9150612440826123d9565b604082019050919050565b6000602082019050818103600083015261246481612428565b9050919050565b7f4552433732313a2063616c6c6572206973206e6f7420746f6b656e206f776e6560008201527f72206f7220617070726f76656400000000000000000000000000000000000000602082015250565b60006124c7602d83611b89565b91506124d28261246b565b604082019050919050565b600060208201905081810360008301526124f6816124ba565b9050919050565b7f4e487b7100000000000000000000000000000000000000000000000000000000600052603260045260246000fd5b7f4e487b7100000000000000000000000000000000000000000000000000000000600052601160045260246000fd5b600061256682611c30565b91507fffffffffffffffffffffffffffffffffffffffffffffffffffffffffffffffff82036125985761259761252c565b5b600182019050919050565b7f4552433732313a20696e76616c696420746f6b656e2049440000000000000000600082015250565b60006125d9601883611b89565b91506125e4826125a3565b602082019050919050565b60006020820190508181036000830152612608816125cc565b9050919050565b7f4552433732313a2061646472657373207a65726f206973206e6f74206120766160008201527f6c6964206f776e65720000000000000000000000000000000000000000000000602082015250565b600061266b602983611b89565b91506126768261260f565b604082019050919050565b6000602082019050818103600083015261269a8161265e565b9050919050565b7f555249206e6f74206578697374206f6e20746861742049440000000000000000600082015250565b60006126d7601883611b89565b91506126e2826126a1565b602082019050919050565b60006020820190508181036000830152612706816126ca565b9050919050565b7f4f776e61626c653a206e6577206f776e657220697320746865207a65726f206160008201527f6464726573730000000000000000000000000000000000000000000000000000602082015250565b6000612769602683611b89565b91506127748261270d565b604082019050919050565b600060208201905081810360008301526127988161275c565b9050919050565b7f4552433732313a207472616e736665722066726f6d20696e636f72726563742060008201527f6f776e6572000000000000000000000000000000000000000000000000000000602082015250565b60006127fb602583611b89565b91506128068261279f565b604082019050919050565b6000602082019050818103600083015261282a816127ee565b9050919050565b7f4552433732313a207472616e7366657220746f20746865207a65726f2061646460008201527f7265737300000000000000000000000000000000000000000000000000000000602082015250565b600061288d602483611b89565b915061289882612831565b604082019050919050565b600060208201905081810360008301526128bc81612880565b9050919050565b7f4f776e61626c653a2063616c6c6572206973206e6f7420746865206f776e6572600082015250565b60006128f9602083611b89565b9150612904826128c3565b602082019050919050565b60006020820190508181036000830152612928816128ec565b9050919050565b7f4552433732313a20617070726f766520746f2063616c6c657200000000000000600082015250565b6000612965601983611b89565b91506129708261292f565b602082019050919050565b6000602082019050818103600083015261299481612958565b9050919050565b7f4552433732313a207472616e7366657220746f206e6f6e20455243373231526560008201527f63656976657220696d706c656d656e7465720000000000000000000000000000602082015250565b60006129f7603283611b89565b9150612a028261299b565b604082019050919050565b60006020820190508181036000830152612a26816129ea565b9050919050565b7f4552433732313a206d696e7420746f20746865207a65726f2061646472657373600082015250565b6000612a63602083611b89565b9150612a6e82612a2d565b602082019050919050565b60006020820190508181036000830152612a9281612a56565b9050919050565b7f4552433732313a20746f6b656e20616c7265616479206d696e74656400000000600082015250565b6000612acf601c83611b89565b9150612ada82612a99565b602082019050919050565b60006020820190508181036000830152612afe81612ac2565b9050919050565b60008190508160005260206000209050919050565b60006020601f8301049050919050565b600082821b905092915050565b600060088302612b677fffffffffffffffffffffffffffffffffffffffffffffffffffffffffffffffff82612b2a565b612b718683612b2a565b95508019841693508086168417925050509392505050565b6000819050919050565b6000612bae612ba9612ba484611c30565b612b89565b611c30565b9050919050565b6000819050919050565b612bc883612b93565b612bdc612bd482612bb5565b848454612b37565b825550505050565b600090565b612bf1612be4565b612bfc818484612bbf565b505050565b5b81811015612c2057612c15600082612be9565b600181019050612c02565b5050565b601f821115612c6557612c3681612b05565b612c3f84612b1a565b81016020851015612c4e578190505b612c62612c5a85612b1a565b830182612c01565b50505b505050565b600082821c905092915050565b6000612c8860001984600802612c6a565b1980831691505092915050565b6000612ca18383612c77565b9150826002028217905092915050565b612cba82611b7e565b67ffffffffffffffff811115612cd357612cd261200f565b5b612cdd8254612316565b612ce8828285612c24565b600060209050601f831160018114612d1b5760008415612d09578287015190505b612d138582612c95565b865550612d7b565b601f198416612d2986612b05565b60005b82811015612d5157848901518255600182019150602085019450602081019050612d2c565b86831015612d6e5784890151612d6a601f891682612c77565b8355505b6001600288020188555050505b505050505050565b6000612d8e82611c30565b9150612d9983611c30565b9250828203905081811115612db157612db061252c565b5b92915050565b6000612dc282611c30565b9150612dcd83611c30565b9250828201905080821115612de557612de461252c565b5b92915050565b600081519050919050565b600082825260208201905092915050565b6000612e1282612deb565b612e1c8185612df6565b9350612e2c818560208601611b9a565b612e3581611bc4565b840191505092915050565b6000608082019050612e556000830187611cc5565b612e626020830186611cc5565b612e6f6040830185611f6f565b8181036060830152612e818184612e07565b905095945050505050565b600081519050612e9b81611aef565b92915050565b600060208284031215612eb757612eb6611ab9565b5b6000612ec584828501612e8c565b9150509291505056fea26469706673582212208987c01146ab74effa02e393bca26a22126cea68f2334fe764699b53ccd81dd964736f6c63430008110033",
  "linkReferences": {},
  "deployedLinkReferences": {}
}