{
  "_format": "hh-sol-artifact-1",
  "contractName": "Ticket",
  "sourceName": "contracts/FilMedia_Contract/Ticket.sol",
  "abi": [
    {
      "inputs": [],
      "stateMutability": "nonpayable",
      "type": "constructor"
    },
    {
      "anonymous": false,
      "inputs": [
        {
          "indexed": true,
          "internalType": "address",
          "name": "account",
          "type": "address"
        },
        {
          "indexed": true,
          "internalType": "address",
          "name": "operator",
          "type": "address"
        },
        {
          "indexed": false,
          "internalType": "bool",
          "name": "approved",
          "type": "bool"
        }
      ],
      "name": "ApprovalForAll",
      "type": "event"
    },
    {
      "anonymous": false,
      "inputs": [
        {
          "indexed": true,
          "internalType": "address",
          "name": "operator",
          "type": "address"
        },
        {
          "indexed": true,
          "internalType": "address",
          "name": "from",
          "type": "address"
        },
        {
          "indexed": true,
          "internalType": "address",
          "name": "to",
          "type": "address"
        },
        {
          "indexed": false,
          "internalType": "uint256[]",
          "name": "ids",
          "type": "uint256[]"
        },
        {
          "indexed": false,
          "internalType": "uint256[]",
          "name": "values",
          "type": "uint256[]"
        }
      ],
      "name": "TransferBatch",
      "type": "event"
    },
    {
      "anonymous": false,
      "inputs": [
        {
          "indexed": true,
          "internalType": "address",
          "name": "operator",
          "type": "address"
        },
        {
          "indexed": true,
          "internalType": "address",
          "name": "from",
          "type": "address"
        },
        {
          "indexed": true,
          "internalType": "address",
          "name": "to",
          "type": "address"
        },
        {
          "indexed": false,
          "internalType": "uint256",
          "name": "id",
          "type": "uint256"
        },
        {
          "indexed": false,
          "internalType": "uint256",
          "name": "value",
          "type": "uint256"
        }
      ],
      "name": "TransferSingle",
      "type": "event"
    },
    {
      "anonymous": false,
      "inputs": [
        {
          "indexed": false,
          "internalType": "string",
          "name": "value",
          "type": "string"
        },
        {
          "indexed": true,
          "internalType": "uint256",
          "name": "id",
          "type": "uint256"
        }
      ],
      "name": "URI",
      "type": "event"
    },
    {
      "inputs": [],
      "name": "artistPercentage",
      "outputs": [
        {
          "internalType": "uint256",
          "name": "",
          "type": "uint256"
        }
      ],
      "stateMutability": "view",
      "type": "function"
    },
    {
      "inputs": [
        {
          "internalType": "address",
          "name": "account",
          "type": "address"
        },
        {
          "internalType": "uint256",
          "name": "id",
          "type": "uint256"
        }
      ],
      "name": "balanceOf",
      "outputs": [
        {
          "internalType": "uint256",
          "name": "",
          "type": "uint256"
        }
      ],
      "stateMutability": "view",
      "type": "function"
    },
    {
      "inputs": [
        {
          "internalType": "address[]",
          "name": "accounts",
          "type": "address[]"
        },
        {
          "internalType": "uint256[]",
          "name": "ids",
          "type": "uint256[]"
        }
      ],
      "name": "balanceOfBatch",
      "outputs": [
        {
          "internalType": "uint256[]",
          "name": "",
          "type": "uint256[]"
        }
      ],
      "stateMutability": "view",
      "type": "function"
    },
    {
      "inputs": [
        {
          "internalType": "address",
          "name": "_owner",
          "type": "address"
        },
        {
          "internalType": "uint256",
          "name": "tokenId",
          "type": "uint256"
        }
      ],
      "name": "balanceOfToken",
      "outputs": [
        {
          "internalType": "uint256",
          "name": "",
          "type": "uint256"
        }
      ],
      "stateMutability": "view",
      "type": "function"
    },
    {
      "inputs": [
        {
          "internalType": "uint256",
          "name": "tokenId",
          "type": "uint256"
        }
      ],
      "name": "checkIfListed",
      "outputs": [
        {
          "internalType": "bool",
          "name": "",
          "type": "bool"
        }
      ],
      "stateMutability": "nonpayable",
      "type": "function"
    },
    {
      "inputs": [
        {
          "internalType": "string",
          "name": "tokenURI",
          "type": "string"
        },
        {
          "internalType": "uint256",
          "name": "price",
          "type": "uint256"
        },
        {
          "internalType": "uint256",
          "name": "_start",
          "type": "uint256"
        },
        {
          "internalType": "uint256",
          "name": "_end",
          "type": "uint256"
        },
        {
          "internalType": "uint256",
          "name": "_supply",
          "type": "uint256"
        }
      ],
      "name": "createToken",
      "outputs": [
        {
          "internalType": "uint256",
          "name": "",
          "type": "uint256"
        }
      ],
      "stateMutability": "payable",
      "type": "function"
    },
    {
      "inputs": [
        {
          "internalType": "uint256",
          "name": "tokenId",
          "type": "uint256"
        },
        {
          "internalType": "uint256",
          "name": "_quantity",
          "type": "uint256"
        }
      ],
      "name": "executeSale",
      "outputs": [],
      "stateMutability": "payable",
      "type": "function"
    },
    {
      "inputs": [
        {
          "internalType": "uint256",
          "name": "id",
          "type": "uint256"
        }
      ],
      "name": "exists",
      "outputs": [
        {
          "internalType": "bool",
          "name": "",
          "type": "bool"
        }
      ],
      "stateMutability": "view",
      "type": "function"
    },
    {
      "inputs": [],
      "name": "getAllNfts",
      "outputs": [
        {
          "components": [
            {
              "internalType": "uint256",
              "name": "tokenId",
              "type": "uint256"
            },
            {
              "internalType": "address payable",
              "name": "owner",
              "type": "address"
            },
            {
              "internalType": "uint256",
              "name": "initialSupply",
              "type": "uint256"
            },
            {
              "internalType": "uint256",
              "name": "_timeStart",
              "type": "uint256"
            },
            {
              "internalType": "uint256",
              "name": "_timeEnd",
              "type": "uint256"
            },
            {
              "internalType": "uint256",
              "name": "price",
              "type": "uint256"
            },
            {
              "internalType": "bool",
              "name": "currentlyListed",
              "type": "bool"
            }
          ],
          "internalType": "struct Ticket.ListedTicket[]",
          "name": "",
          "type": "tuple[]"
        }
      ],
      "stateMutability": "view",
      "type": "function"
    },
    {
      "inputs": [],
      "name": "getCurrentTokenId",
      "outputs": [
        {
          "internalType": "uint256",
          "name": "",
          "type": "uint256"
        }
      ],
      "stateMutability": "view",
      "type": "function"
    },
    {
      "inputs": [],
      "name": "getLatestIdToken",
      "outputs": [
        {
          "components": [
            {
              "internalType": "uint256",
              "name": "tokenId",
              "type": "uint256"
            },
            {
              "internalType": "address payable",
              "name": "owner",
              "type": "address"
            },
            {
              "internalType": "uint256",
              "name": "initialSupply",
              "type": "uint256"
            },
            {
              "internalType": "uint256",
              "name": "_timeStart",
              "type": "uint256"
            },
            {
              "internalType": "uint256",
              "name": "_timeEnd",
              "type": "uint256"
            },
            {
              "internalType": "uint256",
              "name": "price",
              "type": "uint256"
            },
            {
              "internalType": "bool",
              "name": "currentlyListed",
              "type": "bool"
            }
          ],
          "internalType": "struct Ticket.ListedTicket",
          "name": "",
          "type": "tuple"
        }
      ],
      "stateMutability": "view",
      "type": "function"
    },
    {
      "inputs": [
        {
          "internalType": "uint256",
          "name": "tokenId",
          "type": "uint256"
        }
      ],
      "name": "getListedTokenId",
      "outputs": [
        {
          "components": [
            {
              "internalType": "uint256",
              "name": "tokenId",
              "type": "uint256"
            },
            {
              "internalType": "address payable",
              "name": "owner",
              "type": "address"
            },
            {
              "internalType": "uint256",
              "name": "initialSupply",
              "type": "uint256"
            },
            {
              "internalType": "uint256",
              "name": "_timeStart",
              "type": "uint256"
            },
            {
              "internalType": "uint256",
              "name": "_timeEnd",
              "type": "uint256"
            },
            {
              "internalType": "uint256",
              "name": "price",
              "type": "uint256"
            },
            {
              "internalType": "bool",
              "name": "currentlyListed",
              "type": "bool"
            }
          ],
          "internalType": "struct Ticket.ListedTicket",
          "name": "",
          "type": "tuple"
        }
      ],
      "stateMutability": "view",
      "type": "function"
    },
    {
      "inputs": [],
      "name": "getListingPrice",
      "outputs": [
        {
          "internalType": "uint256",
          "name": "",
          "type": "uint256"
        }
      ],
      "stateMutability": "view",
      "type": "function"
    },
    {
      "inputs": [],
      "name": "getMyNFTs",
      "outputs": [
        {
          "components": [
            {
              "internalType": "uint256",
              "name": "tokenId",
              "type": "uint256"
            },
            {
              "internalType": "address payable",
              "name": "owner",
              "type": "address"
            },
            {
              "internalType": "uint256",
              "name": "initialSupply",
              "type": "uint256"
            },
            {
              "internalType": "uint256",
              "name": "_timeStart",
              "type": "uint256"
            },
            {
              "internalType": "uint256",
              "name": "_timeEnd",
              "type": "uint256"
            },
            {
              "internalType": "uint256",
              "name": "price",
              "type": "uint256"
            },
            {
              "internalType": "bool",
              "name": "currentlyListed",
              "type": "bool"
            }
          ],
          "internalType": "struct Ticket.ListedTicket[]",
          "name": "",
          "type": "tuple[]"
        }
      ],
      "stateMutability": "view",
      "type": "function"
    },
    {
      "inputs": [
        {
          "internalType": "address",
          "name": "account",
          "type": "address"
        },
        {
          "internalType": "address",
          "name": "operator",
          "type": "address"
        }
      ],
      "name": "isApprovedForAll",
      "outputs": [
        {
          "internalType": "bool",
          "name": "",
          "type": "bool"
        }
      ],
      "stateMutability": "view",
      "type": "function"
    },
    {
      "inputs": [],
      "name": "isSold",
      "outputs": [
        {
          "internalType": "bool",
          "name": "",
          "type": "bool"
        }
      ],
      "stateMutability": "view",
      "type": "function"
    },
    {
      "inputs": [],
      "name": "listingPrice",
      "outputs": [
        {
          "internalType": "uint256",
          "name": "",
          "type": "uint256"
        }
      ],
      "stateMutability": "view",
      "type": "function"
    },
    {
      "inputs": [],
      "name": "owner",
      "outputs": [
        {
          "internalType": "address payable",
          "name": "",
          "type": "address"
        }
      ],
      "stateMutability": "view",
      "type": "function"
    },
    {
      "inputs": [],
      "name": "ownerPercentage",
      "outputs": [
        {
          "internalType": "uint256",
          "name": "",
          "type": "uint256"
        }
      ],
      "stateMutability": "view",
      "type": "function"
    },
    {
      "inputs": [
        {
          "internalType": "address",
          "name": "from",
          "type": "address"
        },
        {
          "internalType": "address",
          "name": "to",
          "type": "address"
        },
        {
          "internalType": "uint256[]",
          "name": "ids",
          "type": "uint256[]"
        },
        {
          "internalType": "uint256[]",
          "name": "amounts",
          "type": "uint256[]"
        },
        {
          "internalType": "bytes",
          "name": "data",
          "type": "bytes"
        }
      ],
      "name": "safeBatchTransferFrom",
      "outputs": [],
      "stateMutability": "nonpayable",
      "type": "function"
    },
    {
      "inputs": [
        {
          "internalType": "address",
          "name": "from",
          "type": "address"
        },
        {
          "internalType": "address",
          "name": "to",
          "type": "address"
        },
        {
          "internalType": "uint256",
          "name": "id",
          "type": "uint256"
        },
        {
          "internalType": "uint256",
          "name": "amount",
          "type": "uint256"
        },
        {
          "internalType": "bytes",
          "name": "data",
          "type": "bytes"
        }
      ],
      "name": "safeTransferFrom",
      "outputs": [],
      "stateMutability": "nonpayable",
      "type": "function"
    },
    {
      "inputs": [],
      "name": "sellerPercentage",
      "outputs": [
        {
          "internalType": "uint256",
          "name": "",
          "type": "uint256"
        }
      ],
      "stateMutability": "view",
      "type": "function"
    },
    {
      "inputs": [
        {
          "internalType": "address",
          "name": "operator",
          "type": "address"
        },
        {
          "internalType": "bool",
          "name": "approved",
          "type": "bool"
        }
      ],
      "name": "setApprovalForAll",
      "outputs": [],
      "stateMutability": "nonpayable",
      "type": "function"
    },
    {
      "inputs": [],
      "name": "supply",
      "outputs": [
        {
          "internalType": "uint256",
          "name": "",
          "type": "uint256"
        }
      ],
      "stateMutability": "view",
      "type": "function"
    },
    {
      "inputs": [
        {
          "internalType": "bytes4",
          "name": "interfaceId",
          "type": "bytes4"
        }
      ],
      "name": "supportsInterface",
      "outputs": [
        {
          "internalType": "bool",
          "name": "",
          "type": "bool"
        }
      ],
      "stateMutability": "view",
      "type": "function"
    },
    {
      "inputs": [
        {
          "internalType": "uint256",
          "name": "id",
          "type": "uint256"
        }
      ],
      "name": "totalSupply",
      "outputs": [
        {
          "internalType": "uint256",
          "name": "",
          "type": "uint256"
        }
      ],
      "stateMutability": "view",
      "type": "function"
    },
    {
      "inputs": [
        {
          "internalType": "uint256",
          "name": "_listPrice",
          "type": "uint256"
        }
      ],
      "name": "updateListPrice",
      "outputs": [],
      "stateMutability": "nonpayable",
      "type": "function"
    },
    {
      "inputs": [
        {
          "internalType": "uint256",
          "name": "tokenId",
          "type": "uint256"
        }
      ],
      "name": "uri",
      "outputs": [
        {
          "internalType": "string",
          "name": "",
          "type": "string"
        }
      ],
      "stateMutability": "view",
      "type": "function"
    }
  ],
  "bytecode": "0x6080604052604051806020016040528060008152506003908162000024919062000336565b50666a94d74f430000600e553480156200003d57600080fd5b50604051806020016040528060008152506200005f81620000a760201b60201c565b5033600660006101000a81548173ffffffffffffffffffffffffffffffffffffffff021916908373ffffffffffffffffffffffffffffffffffffffff1602179055506200041d565b8060029081620000b8919062000336565b5050565b600081519050919050565b7f4e487b7100000000000000000000000000000000000000000000000000000000600052604160045260246000fd5b7f4e487b7100000000000000000000000000000000000000000000000000000000600052602260045260246000fd5b600060028204905060018216806200013e57607f821691505b602082108103620001545762000153620000f6565b5b50919050565b60008190508160005260206000209050919050565b60006020601f8301049050919050565b600082821b905092915050565b600060088302620001be7fffffffffffffffffffffffffffffffffffffffffffffffffffffffffffffffff826200017f565b620001ca86836200017f565b95508019841693508086168417925050509392505050565b6000819050919050565b6000819050919050565b600062000217620002116200020b84620001e2565b620001ec565b620001e2565b9050919050565b6000819050919050565b6200023383620001f6565b6200024b62000242826200021e565b8484546200018c565b825550505050565b600090565b6200026262000253565b6200026f81848462000228565b505050565b5b8181101562000297576200028b60008262000258565b60018101905062000275565b5050565b601f821115620002e657620002b0816200015a565b620002bb846200016f565b81016020851015620002cb578190505b620002e3620002da856200016f565b83018262000274565b50505b505050565b600082821c905092915050565b60006200030b60001984600802620002eb565b1980831691505092915050565b6000620003268383620002f8565b9150826002028217905092915050565b6200034182620000bc565b67ffffffffffffffff8111156200035d576200035c620000c7565b5b62000369825462000125565b620003768282856200029b565b600060209050601f831160018114620003ae576000841562000399578287015190505b620003a5858262000318565b86555062000415565b601f198416620003be866200015a565b60005b82811015620003e857848901518255600182019150602085019450602081019050620003c1565b8683101562000408578489015162000404601f891682620002f8565b8355505b6001600288020188555050505b505050505050565b6146dc806200042d6000396000f3fe6080604052600436106101b55760003560e01c8063732e8d73116100ec578063d7179f4c1161008a578063e380b7bd11610064578063e380b7bd14610642578063e852e7411461067f578063e985e9c5146106aa578063f242432a146106e7576101b5565b8063d7179f4c146105c1578063d84c0204146105ec578063e121505414610617576101b5565b8063b647c2cc116100c6578063b647c2cc146104f3578063bd85b03914610530578063c322579c1461056d578063c78f19f914610596576101b5565b8063732e8d73146104745780638da5cb5b1461049f578063a22cb465146104ca576101b5565b80633551c3be116101595780634e1273f4116101335780634e1273f4146103a45780634f558e79146103e1578063561892361461041e578063629cb2e414610449576101b5565b80633551c3be1461032d57806341da75551461035d5780634437b60b14610388576101b5565b8063047fc9aa11610195578063047fc9aa146102715780630e89341c1461029c57806312e85585146102d95780632eb2c2d614610304576101b5565b80624a66bc146101ba578062fdd58e146101f757806301ffc9a714610234575b600080fd5b3480156101c657600080fd5b506101e160048036038101906101dc9190612999565b610710565b6040516101ee91906129e1565b60405180910390f35b34801561020357600080fd5b5061021e60048036038101906102199190612a5a565b610783565b60405161022b9190612aa9565b60405180910390f35b34801561024057600080fd5b5061025b60048036038101906102569190612b1c565b61084b565b60405161026891906129e1565b60405180910390f35b34801561027d57600080fd5b5061028661092d565b6040516102939190612aa9565b60405180910390f35b3480156102a857600080fd5b506102c360048036038101906102be9190612999565b610933565b6040516102d09190612bd9565b60405180910390f35b3480156102e557600080fd5b506102ee61093a565b6040516102fb9190612aa9565b60405180910390f35b34801561031057600080fd5b5061032b60048036038101906103269190612df8565b610944565b005b61034760048036038101906103429190612f68565b6109e5565b6040516103549190612aa9565b60405180910390f35b34801561036957600080fd5b50610372610b5c565b60405161037f9190612aa9565b60405180910390f35b6103a2600480360381019061039d9190612fff565b610b62565b005b3480156103b057600080fd5b506103cb60048036038101906103c69190613102565b610e1c565b6040516103d89190613238565b60405180910390f35b3480156103ed57600080fd5b5061040860048036038101906104039190612999565b610f35565b60405161041591906129e1565b60405180910390f35b34801561042a57600080fd5b50610433610f49565b6040516104409190612aa9565b60405180910390f35b34801561045557600080fd5b5061045e610f5a565b60405161046b91906133c7565b60405180910390f35b34801561048057600080fd5b5061048961120e565b60405161049691906133c7565b60405180910390f35b3480156104ab57600080fd5b506104b46113a5565b6040516104c191906133f8565b60405180910390f35b3480156104d657600080fd5b506104f160048036038101906104ec919061343f565b6113cb565b005b3480156104ff57600080fd5b5061051a60048036038101906105159190612999565b6113e1565b604051610527919061350d565b60405180910390f35b34801561053c57600080fd5b5061055760048036038101906105529190612999565b6114b1565b6040516105649190612aa9565b60405180910390f35b34801561057957600080fd5b50610594600480360381019061058f9190612999565b6114ce565b005b3480156105a257600080fd5b506105ab611568565b6040516105b89190612aa9565b60405180910390f35b3480156105cd57600080fd5b506105d661156e565b6040516105e39190612aa9565b60405180910390f35b3480156105f857600080fd5b50610601611574565b60405161060e9190612aa9565b60405180910390f35b34801561062357600080fd5b5061062c61157a565b604051610639919061350d565b60405180910390f35b34801561064e57600080fd5b5061066960048036038101906106649190612a5a565b611657565b6040516106769190612aa9565b60405180910390f35b34801561068b57600080fd5b5061069461166b565b6040516106a191906129e1565b60405180910390f35b3480156106b657600080fd5b506106d160048036038101906106cc9190613528565b61167e565b6040516106de91906129e1565b60405180910390f35b3480156106f357600080fd5b5061070e60048036038101906107099190613568565b611712565b005b600080600f6000848152602001908152602001600020600201541015610750576001600d60006101000a81548160ff02191690831515021790555061076c565b6000600d60006101000a81548160ff0219169083151502179055505b600d60009054906101000a900460ff169050919050565b60008073ffffffffffffffffffffffffffffffffffffffff168373ffffffffffffffffffffffffffffffffffffffff16036107f3576040517f08c379a00000000000000000000000000000000000000000000000000000000081526004016107ea90613671565b60405180910390fd5b60008083815260200190815260200160002060008473ffffffffffffffffffffffffffffffffffffffff1673ffffffffffffffffffffffffffffffffffffffff16815260200190815260200160002054905092915050565b60007fd9b67a26000000000000000000000000000000000000000000000000000000007bffffffffffffffffffffffffffffffffffffffffffffffffffffffff1916827bffffffffffffffffffffffffffffffffffffffffffffffffffffffff1916148061091657507f0e89341c000000000000000000000000000000000000000000000000000000007bffffffffffffffffffffffffffffffffffffffffffffffffffffffff1916827bffffffffffffffffffffffffffffffffffffffffffffffffffffffff1916145b806109265750610925826117b3565b5b9050919050565b600c5481565b6060919050565b6000600e54905090565b61094c61181d565b73ffffffffffffffffffffffffffffffffffffffff168573ffffffffffffffffffffffffffffffffffffffff16148061099257506109918561098c61181d565b61167e565b5b6109d1576040517f08c379a00000000000000000000000000000000000000000000000000000000081526004016109c890613703565b60405180910390fd5b6109de8585858585611825565b5050505050565b6000600e543414610a2b576040517f08c379a0000000000000000000000000000000000000000000000000000000008152600401610a229061376f565b60405180910390fd5b60008511610a6e576040517f08c379a0000000000000000000000000000000000000000000000000000000008152600401610a65906137db565b60405180910390fd5b600660009054906101000a900473ffffffffffffffffffffffffffffffffffffffff1673ffffffffffffffffffffffffffffffffffffffff166108fc349081150290604051600060405180830381858888f19350505050158015610ad6573d6000803e3d6000fd5b50610ae16007611b46565b6000610aed6007611b5c565b9050610b1d33600660009054906101000a900473ffffffffffffffffffffffffffffffffffffffff166001611b6a565b610b3833828560405180602001604052806000815250611cd6565b610b428188611e86565b610b4f818487878a611eeb565b8091505095945050505050565b600a5481565b600081600f600085815260200190815260200160002060050154610b86919061382a565b905080341015610bcb576040517f08c379a0000000000000000000000000000000000000000000000000000000008152600401610bc2906138b8565b60405180910390fd5b600f6000848152602001908152602001600020600201548210610c23576040517f08c379a0000000000000000000000000000000000000000000000000000000008152600401610c1a90613924565b60405180910390fd5b6000600f60008581526020019081526020016000206002015411610c7c576040517f08c379a0000000000000000000000000000000000000000000000000000000008152600401610c7390613990565b60405180910390fd5b6000601060003373ffffffffffffffffffffffffffffffffffffffff1673ffffffffffffffffffffffffffffffffffffffff1681526020019081526020016000209050828160000181905550338160030160006101000a81548173ffffffffffffffffffffffffffffffffffffffff021916908373ffffffffffffffffffffffffffffffffffffffff1602179055506001600f600086815260200190815260200160002060060160006101000a81548160ff0219169083151502179055508060000154600f600086815260200190815260200160002060020154610d6091906139b0565b506000600f600086815260200190815260200160002060010160009054906101000a900473ffffffffffffffffffffffffffffffffffffffff169050610da66008611b46565b8073ffffffffffffffffffffffffffffffffffffffff166108fc349081150290604051600060405180830381858888f19350505050158015610dec573d6000803e3d6000fd5b50610df981336001611b6a565b610e158133878760405180602001604052806000815250611712565b5050505050565b60608151835114610e62576040517f08c379a0000000000000000000000000000000000000000000000000000000008152600401610e5990613a56565b60405180910390fd5b6000835167ffffffffffffffff811115610e7f57610e7e612c00565b5b604051908082528060200260200182016040528015610ead5781602001602082028036833780820191505090505b50905060005b8451811015610f2a57610efa858281518110610ed257610ed1613a76565b5b6020026020010151858381518110610eed57610eec613a76565b5b6020026020010151610783565b828281518110610f0d57610f0c613a76565b5b60200260200101818152505080610f2390613aa5565b9050610eb3565b508091505092915050565b600080610f41836114b1565b119050919050565b6000610f556007611b5c565b905090565b60606000610f686007611b5c565b905060008060005b83811015611010573373ffffffffffffffffffffffffffffffffffffffff16600f6000600184610fa09190613aed565b815260200190815260200160002060010160009054906101000a900473ffffffffffffffffffffffffffffffffffffffff1673ffffffffffffffffffffffffffffffffffffffff1603610ffd57600183610ffa9190613aed565b92505b808061100890613aa5565b915050610f70565b5060008267ffffffffffffffff81111561102d5761102c612c00565b5b60405190808252806020026020018201604052801561106657816020015b6110536128fa565b81526020019060019003908161104b5790505b50905060005b84811015611203573373ffffffffffffffffffffffffffffffffffffffff16600f600060018461109c9190613aed565b815260200190815260200160002060010160009054906101000a900473ffffffffffffffffffffffffffffffffffffffff1673ffffffffffffffffffffffffffffffffffffffff16036111f05760006001826110f89190613aed565b90506000600f60008381526020019081526020016000209050806040518060e0016040529081600082015481526020016001820160009054906101000a900473ffffffffffffffffffffffffffffffffffffffff1673ffffffffffffffffffffffffffffffffffffffff1673ffffffffffffffffffffffffffffffffffffffff168152602001600282015481526020016003820154815260200160048201548152602001600582015481526020016006820160009054906101000a900460ff1615151515815250508486815181106111d3576111d2613a76565b5b60200260200101819052506001856111eb9190613aed565b945050505b80806111fb90613aa5565b91505061106c565b508094505050505090565b6060600061121c6007611b5c565b905060008167ffffffffffffffff81111561123a57611239612c00565b5b60405190808252806020026020018201604052801561127357816020015b6112606128fa565b8152602001906001900390816112585790505b5090506000805b8381101561139b5760006001826112919190613aed565b90506000600f60008381526020019081526020016000209050806040518060e0016040529081600082015481526020016001820160009054906101000a900473ffffffffffffffffffffffffffffffffffffffff1673ffffffffffffffffffffffffffffffffffffffff1673ffffffffffffffffffffffffffffffffffffffff168152602001600282015481526020016003820154815260200160048201548152602001600582015481526020016006820160009054906101000a900460ff16151515158152505085858151811061136c5761136b613a76565b5b60200260200101819052506001846113849190613aed565b93505050808061139390613aa5565b91505061127a565b5081935050505090565b600660009054906101000a900473ffffffffffffffffffffffffffffffffffffffff1681565b6113dd6113d661181d565b8383611b6a565b5050565b6113e96128fa565b600f60008381526020019081526020016000206040518060e0016040529081600082015481526020016001820160009054906101000a900473ffffffffffffffffffffffffffffffffffffffff1673ffffffffffffffffffffffffffffffffffffffff1673ffffffffffffffffffffffffffffffffffffffff168152602001600282015481526020016003820154815260200160048201548152602001600582015481526020016006820160009054906101000a900460ff1615151515815250509050919050565b600060056000838152602001908152602001600020549050919050565b3373ffffffffffffffffffffffffffffffffffffffff16600660009054906101000a900473ffffffffffffffffffffffffffffffffffffffff1673ffffffffffffffffffffffffffffffffffffffff161461155e576040517f08c379a000000000000000000000000000000000000000000000000000000000815260040161155590613b6d565b60405180910390fd5b80600e8190555050565b600e5481565b60095481565b600b5481565b6115826128fa565b600061158e6007611b5c565b9050600f60008281526020019081526020016000206040518060e0016040529081600082015481526020016001820160009054906101000a900473ffffffffffffffffffffffffffffffffffffffff1673ffffffffffffffffffffffffffffffffffffffff1673ffffffffffffffffffffffffffffffffffffffff168152602001600282015481526020016003820154815260200160048201548152602001600582015481526020016006820160009054906101000a900460ff16151515158152505091505090565b60006116638383610783565b905092915050565b600d60009054906101000a900460ff1681565b6000600160008473ffffffffffffffffffffffffffffffffffffffff1673ffffffffffffffffffffffffffffffffffffffff16815260200190815260200160002060008373ffffffffffffffffffffffffffffffffffffffff1673ffffffffffffffffffffffffffffffffffffffff16815260200190815260200160002060009054906101000a900460ff16905092915050565b61171a61181d565b73ffffffffffffffffffffffffffffffffffffffff168573ffffffffffffffffffffffffffffffffffffffff161480611760575061175f8561175a61181d565b61167e565b5b61179f576040517f08c379a000000000000000000000000000000000000000000000000000000000815260040161179690613703565b60405180910390fd5b6117ac858585858561201e565b5050505050565b60007f01ffc9a7000000000000000000000000000000000000000000000000000000007bffffffffffffffffffffffffffffffffffffffffffffffffffffffff1916827bffffffffffffffffffffffffffffffffffffffffffffffffffffffff1916149050919050565b600033905090565b8151835114611869576040517f08c379a000000000000000000000000000000000000000000000000000000000815260040161186090613bff565b60405180910390fd5b600073ffffffffffffffffffffffffffffffffffffffff168473ffffffffffffffffffffffffffffffffffffffff16036118d8576040517f08c379a00000000000000000000000000000000000000000000000000000000081526004016118cf90613c91565b60405180910390fd5b60006118e261181d565b90506118f28187878787876122b9565b60005b8451811015611aa357600085828151811061191357611912613a76565b5b60200260200101519050600085838151811061193257611931613a76565b5b60200260200101519050600080600084815260200190815260200160002060008b73ffffffffffffffffffffffffffffffffffffffff1673ffffffffffffffffffffffffffffffffffffffff168152602001908152602001600020549050818110156119d3576040517f08c379a00000000000000000000000000000000000000000000000000000000081526004016119ca90613d23565b60405180910390fd5b81810360008085815260200190815260200160002060008c73ffffffffffffffffffffffffffffffffffffffff1673ffffffffffffffffffffffffffffffffffffffff168152602001908152602001600020819055508160008085815260200190815260200160002060008b73ffffffffffffffffffffffffffffffffffffffff1673ffffffffffffffffffffffffffffffffffffffff1681526020019081526020016000206000828254611a889190613aed565b9250508190555050505080611a9c90613aa5565b90506118f5565b508473ffffffffffffffffffffffffffffffffffffffff168673ffffffffffffffffffffffffffffffffffffffff168273ffffffffffffffffffffffffffffffffffffffff167f4a39dc06d4c0dbc64b70af90fd698a233a518aa5d07e595d983b8c0526c8f7fb8787604051611b1a929190613d43565b60405180910390a4611b308187878787876122cf565b611b3e8187878787876122d7565b505050505050565b6001816000016000828254019250508190555050565b600081600001549050919050565b8173ffffffffffffffffffffffffffffffffffffffff168373ffffffffffffffffffffffffffffffffffffffff1603611bd8576040517f08c379a0000000000000000000000000000000000000000000000000000000008152600401611bcf90613dec565b60405180910390fd5b80600160008573ffffffffffffffffffffffffffffffffffffffff1673ffffffffffffffffffffffffffffffffffffffff16815260200190815260200160002060008473ffffffffffffffffffffffffffffffffffffffff1673ffffffffffffffffffffffffffffffffffffffff16815260200190815260200160002060006101000a81548160ff0219169083151502179055508173ffffffffffffffffffffffffffffffffffffffff168373ffffffffffffffffffffffffffffffffffffffff167f17307eab39ab6107e8899845ad3d59bd9653f200f220920489ca2b5937696c3183604051611cc991906129e1565b60405180910390a3505050565b600073ffffffffffffffffffffffffffffffffffffffff168473ffffffffffffffffffffffffffffffffffffffff1603611d45576040517f08c379a0000000000000000000000000000000000000000000000000000000008152600401611d3c90613e7e565b60405180910390fd5b6000611d4f61181d565b90506000611d5c856124ae565b90506000611d69856124ae565b9050611d7a836000898585896122b9565b8460008088815260200190815260200160002060008973ffffffffffffffffffffffffffffffffffffffff1673ffffffffffffffffffffffffffffffffffffffff1681526020019081526020016000206000828254611dd99190613aed565b925050819055508673ffffffffffffffffffffffffffffffffffffffff16600073ffffffffffffffffffffffffffffffffffffffff168473ffffffffffffffffffffffffffffffffffffffff167fc3d58168c5ae7397731d063d5bbf3d657854427343f4c083240f7aacaa2d0f628989604051611e57929190613e9e565b60405180910390a4611e6e836000898585896122cf565b611e7d83600089898989612528565b50505050505050565b80600460008481526020019081526020016000209081611ea691906140d3565b50817f6bb7ff708619ba0610cba295a58592e0451dee2622938c8755667688daf3529b611ed284610933565b604051611edf9190612bd9565b60405180910390a25050565b600e543414611f2f576040517f08c379a0000000000000000000000000000000000000000000000000000000008152600401611f2690614217565b60405180910390fd5b60008411611f72576040517f08c379a0000000000000000000000000000000000000000000000000000000008152600401611f69906142a9565b60405180910390fd5b6000600f60008781526020019081526020016000209050858160000181905550338160010160006101000a81548173ffffffffffffffffffffffffffffffffffffffff021916908373ffffffffffffffffffffffffffffffffffffffff16021790555083816002018190555082816003018190555081816004018190555084816005018190555060018160060160006101000a81548160ff021916908315150217905550505050505050565b600073ffffffffffffffffffffffffffffffffffffffff168473ffffffffffffffffffffffffffffffffffffffff160361208d576040517f08c379a000000000000000000000000000000000000000000000000000000000815260040161208490613c91565b60405180910390fd5b600061209761181d565b905060006120a4856124ae565b905060006120b1856124ae565b90506120c18389898585896122b9565b600080600088815260200190815260200160002060008a73ffffffffffffffffffffffffffffffffffffffff1673ffffffffffffffffffffffffffffffffffffffff16815260200190815260200160002054905085811015612158576040517f08c379a000000000000000000000000000000000000000000000000000000000815260040161214f90613d23565b60405180910390fd5b85810360008089815260200190815260200160002060008b73ffffffffffffffffffffffffffffffffffffffff1673ffffffffffffffffffffffffffffffffffffffff168152602001908152602001600020819055508560008089815260200190815260200160002060008a73ffffffffffffffffffffffffffffffffffffffff1673ffffffffffffffffffffffffffffffffffffffff168152602001908152602001600020600082825461220d9190613aed565b925050819055508773ffffffffffffffffffffffffffffffffffffffff168973ffffffffffffffffffffffffffffffffffffffff168573ffffffffffffffffffffffffffffffffffffffff167fc3d58168c5ae7397731d063d5bbf3d657854427343f4c083240f7aacaa2d0f628a8a60405161228a929190613e9e565b60405180910390a46122a0848a8a86868a6122cf565b6122ae848a8a8a8a8a612528565b505050505050505050565b6122c78686868686866126ff565b505050505050565b505050505050565b6122f68473ffffffffffffffffffffffffffffffffffffffff166128cf565b156124a6578373ffffffffffffffffffffffffffffffffffffffff1663bc197c8187878686866040518663ffffffff1660e01b815260040161233c95949392919061432d565b6020604051808303816000875af192505050801561237857506040513d601f19601f8201168201806040525081019061237591906143aa565b60015b61241d576123846143e4565b806308c379a0036123e05750612398614406565b806123a357506123e2565b806040517f08c379a00000000000000000000000000000000000000000000000000000000081526004016123d79190612bd9565b60405180910390fd5b505b6040517f08c379a000000000000000000000000000000000000000000000000000000000815260040161241490614508565b60405180910390fd5b63bc197c8160e01b7bffffffffffffffffffffffffffffffffffffffffffffffffffffffff1916817bffffffffffffffffffffffffffffffffffffffffffffffffffffffff1916146124a4576040517f08c379a000000000000000000000000000000000000000000000000000000000815260040161249b9061459a565b60405180910390fd5b505b505050505050565b60606000600167ffffffffffffffff8111156124cd576124cc612c00565b5b6040519080825280602002602001820160405280156124fb5781602001602082028036833780820191505090505b509050828160008151811061251357612512613a76565b5b60200260200101818152505080915050919050565b6125478473ffffffffffffffffffffffffffffffffffffffff166128cf565b156126f7578373ffffffffffffffffffffffffffffffffffffffff1663f23a6e6187878686866040518663ffffffff1660e01b815260040161258d9594939291906145ba565b6020604051808303816000875af19250505080156125c957506040513d601f19601f820116820180604052508101906125c691906143aa565b60015b61266e576125d56143e4565b806308c379a00361263157506125e9614406565b806125f45750612633565b806040517f08c379a00000000000000000000000000000000000000000000000000000000081526004016126289190612bd9565b60405180910390fd5b505b6040517f08c379a000000000000000000000000000000000000000000000000000000000815260040161266590614508565b60405180910390fd5b63f23a6e6160e01b7bffffffffffffffffffffffffffffffffffffffffffffffffffffffff1916817bffffffffffffffffffffffffffffffffffffffffffffffffffffffff1916146126f5576040517f08c379a00000000000000000000000000000000000000000000000000000000081526004016126ec9061459a565b60405180910390fd5b505b505050505050565b61270d8686868686866128f2565b600073ffffffffffffffffffffffffffffffffffffffff168573ffffffffffffffffffffffffffffffffffffffff16036127be5760005b83518110156127bc578281815181106127605761275f613a76565b5b60200260200101516005600086848151811061277f5761277e613a76565b5b6020026020010151815260200190815260200160002060008282546127a49190613aed565b92505081905550806127b590613aa5565b9050612744565b505b600073ffffffffffffffffffffffffffffffffffffffff168473ffffffffffffffffffffffffffffffffffffffff16036128c75760005b83518110156128c557600084828151811061281357612812613a76565b5b60200260200101519050600084838151811061283257612831613a76565b5b6020026020010151905060006005600084815260200190815260200160002054905081811015612897576040517f08c379a000000000000000000000000000000000000000000000000000000000815260040161288e90614686565b60405180910390fd5b8181036005600085815260200190815260200160002081905550505050806128be90613aa5565b90506127f5565b505b505050505050565b6000808273ffffffffffffffffffffffffffffffffffffffff163b119050919050565b505050505050565b6040518060e0016040528060008152602001600073ffffffffffffffffffffffffffffffffffffffff168152602001600081526020016000815260200160008152602001600081526020016000151581525090565b6000604051905090565b600080fd5b600080fd5b6000819050919050565b61297681612963565b811461298157600080fd5b50565b6000813590506129938161296d565b92915050565b6000602082840312156129af576129ae612959565b5b60006129bd84828501612984565b91505092915050565b60008115159050919050565b6129db816129c6565b82525050565b60006020820190506129f660008301846129d2565b92915050565b600073ffffffffffffffffffffffffffffffffffffffff82169050919050565b6000612a27826129fc565b9050919050565b612a3781612a1c565b8114612a4257600080fd5b50565b600081359050612a5481612a2e565b92915050565b60008060408385031215612a7157612a70612959565b5b6000612a7f85828601612a45565b9250506020612a9085828601612984565b9150509250929050565b612aa381612963565b82525050565b6000602082019050612abe6000830184612a9a565b92915050565b60007fffffffff0000000000000000000000000000000000000000000000000000000082169050919050565b612af981612ac4565b8114612b0457600080fd5b50565b600081359050612b1681612af0565b92915050565b600060208284031215612b3257612b31612959565b5b6000612b4084828501612b07565b91505092915050565b600081519050919050565b600082825260208201905092915050565b60005b83811015612b83578082015181840152602081019050612b68565b60008484015250505050565b6000601f19601f8301169050919050565b6000612bab82612b49565b612bb58185612b54565b9350612bc5818560208601612b65565b612bce81612b8f565b840191505092915050565b60006020820190508181036000830152612bf38184612ba0565b905092915050565b600080fd5b7f4e487b7100000000000000000000000000000000000000000000000000000000600052604160045260246000fd5b612c3882612b8f565b810181811067ffffffffffffffff82111715612c5757612c56612c00565b5b80604052505050565b6000612c6a61294f565b9050612c768282612c2f565b919050565b600067ffffffffffffffff821115612c9657612c95612c00565b5b602082029050602081019050919050565b600080fd5b6000612cbf612cba84612c7b565b612c60565b90508083825260208201905060208402830185811115612ce257612ce1612ca7565b5b835b81811015612d0b5780612cf78882612984565b845260208401935050602081019050612ce4565b5050509392505050565b600082601f830112612d2a57612d29612bfb565b5b8135612d3a848260208601612cac565b91505092915050565b600080fd5b600067ffffffffffffffff821115612d6357612d62612c00565b5b612d6c82612b8f565b9050602081019050919050565b82818337600083830152505050565b6000612d9b612d9684612d48565b612c60565b905082815260208101848484011115612db757612db6612d43565b5b612dc2848285612d79565b509392505050565b600082601f830112612ddf57612dde612bfb565b5b8135612def848260208601612d88565b91505092915050565b600080600080600060a08688031215612e1457612e13612959565b5b6000612e2288828901612a45565b9550506020612e3388828901612a45565b945050604086013567ffffffffffffffff811115612e5457612e5361295e565b5b612e6088828901612d15565b935050606086013567ffffffffffffffff811115612e8157612e8061295e565b5b612e8d88828901612d15565b925050608086013567ffffffffffffffff811115612eae57612ead61295e565b5b612eba88828901612dca565b9150509295509295909350565b600067ffffffffffffffff821115612ee257612ee1612c00565b5b612eeb82612b8f565b9050602081019050919050565b6000612f0b612f0684612ec7565b612c60565b905082815260208101848484011115612f2757612f26612d43565b5b612f32848285612d79565b509392505050565b600082601f830112612f4f57612f4e612bfb565b5b8135612f5f848260208601612ef8565b91505092915050565b600080600080600060a08688031215612f8457612f83612959565b5b600086013567ffffffffffffffff811115612fa257612fa161295e565b5b612fae88828901612f3a565b9550506020612fbf88828901612984565b9450506040612fd088828901612984565b9350506060612fe188828901612984565b9250506080612ff288828901612984565b9150509295509295909350565b6000806040838503121561301657613015612959565b5b600061302485828601612984565b925050602061303585828601612984565b9150509250929050565b600067ffffffffffffffff82111561305a57613059612c00565b5b602082029050602081019050919050565b600061307e6130798461303f565b612c60565b905080838252602082019050602084028301858111156130a1576130a0612ca7565b5b835b818110156130ca57806130b68882612a45565b8452602084019350506020810190506130a3565b5050509392505050565b600082601f8301126130e9576130e8612bfb565b5b81356130f984826020860161306b565b91505092915050565b6000806040838503121561311957613118612959565b5b600083013567ffffffffffffffff8111156131375761313661295e565b5b613143858286016130d4565b925050602083013567ffffffffffffffff8111156131645761316361295e565b5b61317085828601612d15565b9150509250929050565b600081519050919050565b600082825260208201905092915050565b6000819050602082019050919050565b6131af81612963565b82525050565b60006131c183836131a6565b60208301905092915050565b6000602082019050919050565b60006131e58261317a565b6131ef8185613185565b93506131fa83613196565b8060005b8381101561322b57815161321288826131b5565b975061321d836131cd565b9250506001810190506131fe565b5085935050505092915050565b6000602082019050818103600083015261325281846131da565b905092915050565b600081519050919050565b600082825260208201905092915050565b6000819050602082019050919050565b6000613291826129fc565b9050919050565b6132a181613286565b82525050565b6132b0816129c6565b82525050565b60e0820160008201516132cc60008501826131a6565b5060208201516132df6020850182613298565b5060408201516132f260408501826131a6565b50606082015161330560608501826131a6565b50608082015161331860808501826131a6565b5060a082015161332b60a08501826131a6565b5060c082015161333e60c08501826132a7565b50505050565b600061335083836132b6565b60e08301905092915050565b6000602082019050919050565b60006133748261325a565b61337e8185613265565b935061338983613276565b8060005b838110156133ba5781516133a18882613344565b97506133ac8361335c565b92505060018101905061338d565b5085935050505092915050565b600060208201905081810360008301526133e18184613369565b905092915050565b6133f281613286565b82525050565b600060208201905061340d60008301846133e9565b92915050565b61341c816129c6565b811461342757600080fd5b50565b60008135905061343981613413565b92915050565b6000806040838503121561345657613455612959565b5b600061346485828601612a45565b92505060206134758582860161342a565b9150509250929050565b60e08201600082015161349560008501826131a6565b5060208201516134a86020850182613298565b5060408201516134bb60408501826131a6565b5060608201516134ce60608501826131a6565b5060808201516134e160808501826131a6565b5060a08201516134f460a08501826131a6565b5060c082015161350760c08501826132a7565b50505050565b600060e082019050613522600083018461347f565b92915050565b6000806040838503121561353f5761353e612959565b5b600061354d85828601612a45565b925050602061355e85828601612a45565b9150509250929050565b600080600080600060a0868803121561358457613583612959565b5b600061359288828901612a45565b95505060206135a388828901612a45565b94505060406135b488828901612984565b93505060606135c588828901612984565b925050608086013567ffffffffffffffff8111156135e6576135e561295e565b5b6135f288828901612dca565b9150509295509295909350565b7f455243313135353a2061646472657373207a65726f206973206e6f742061207660008201527f616c6964206f776e657200000000000000000000000000000000000000000000602082015250565b600061365b602a83612b54565b9150613666826135ff565b604082019050919050565b6000602082019050818103600083015261368a8161364e565b9050919050565b7f455243313135353a2063616c6c6572206973206e6f7420746f6b656e206f776e60008201527f6572206f7220617070726f766564000000000000000000000000000000000000602082015250565b60006136ed602e83612b54565b91506136f882613691565b604082019050919050565b6000602082019050818103600083015261371c816136e0565b9050919050565b7f73656e6420656e6f756768206574686572730000000000000000000000000000600082015250565b6000613759601283612b54565b915061376482613723565b602082019050919050565b600060208201905081810360008301526137888161374c565b9050919050565b7f7072696365206d7573742062652067726561746572207468616e203000000000600082015250565b60006137c5601c83612b54565b91506137d08261378f565b602082019050919050565b600060208201905081810360008301526137f4816137b8565b9050919050565b7f4e487b7100000000000000000000000000000000000000000000000000000000600052601160045260246000fd5b600061383582612963565b915061384083612963565b925082820261384e81612963565b91508282048414831517613865576138646137fb565b5b5092915050565b7f706c73207375626d6974207468652061736b696e672070726963650000000000600082015250565b60006138a2601b83612b54565b91506138ad8261386c565b602082019050919050565b600060208201905081810360008301526138d181613895565b9050919050565b7f796f752063616e74207075726368617365206d6f726500000000000000000000600082015250565b600061390e601683612b54565b9150613919826138d8565b602082019050919050565b6000602082019050818103600083015261393d81613901565b9050919050565b7f736f6c64206f757420736f727279000000000000000000000000000000000000600082015250565b600061397a600e83612b54565b915061398582613944565b602082019050919050565b600060208201905081810360008301526139a98161396d565b9050919050565b60006139bb82612963565b91506139c683612963565b92508282039050818111156139de576139dd6137fb565b5b92915050565b7f455243313135353a206163636f756e747320616e6420696473206c656e67746860008201527f206d69736d617463680000000000000000000000000000000000000000000000602082015250565b6000613a40602983612b54565b9150613a4b826139e4565b604082019050919050565b60006020820190508181036000830152613a6f81613a33565b9050919050565b7f4e487b7100000000000000000000000000000000000000000000000000000000600052603260045260246000fd5b6000613ab082612963565b91507fffffffffffffffffffffffffffffffffffffffffffffffffffffffffffffffff8203613ae257613ae16137fb565b5b600182019050919050565b6000613af882612963565b9150613b0383612963565b9250828201905080821115613b1b57613b1a6137fb565b5b92915050565b7f6f6e6c79206f776e65722063616c6c20746869732066756e6374696f6e000000600082015250565b6000613b57601d83612b54565b9150613b6282613b21565b602082019050919050565b60006020820190508181036000830152613b8681613b4a565b9050919050565b7f455243313135353a2069647320616e6420616d6f756e7473206c656e6774682060008201527f6d69736d61746368000000000000000000000000000000000000000000000000602082015250565b6000613be9602883612b54565b9150613bf482613b8d565b604082019050919050565b60006020820190508181036000830152613c1881613bdc565b9050919050565b7f455243313135353a207472616e7366657220746f20746865207a65726f20616460008201527f6472657373000000000000000000000000000000000000000000000000000000602082015250565b6000613c7b602583612b54565b9150613c8682613c1f565b604082019050919050565b60006020820190508181036000830152613caa81613c6e565b9050919050565b7f455243313135353a20696e73756666696369656e742062616c616e636520666f60008201527f72207472616e7366657200000000000000000000000000000000000000000000602082015250565b6000613d0d602a83612b54565b9150613d1882613cb1565b604082019050919050565b60006020820190508181036000830152613d3c81613d00565b9050919050565b60006040820190508181036000830152613d5d81856131da565b90508181036020830152613d7181846131da565b90509392505050565b7f455243313135353a2073657474696e6720617070726f76616c2073746174757360008201527f20666f722073656c660000000000000000000000000000000000000000000000602082015250565b6000613dd6602983612b54565b9150613de182613d7a565b604082019050919050565b60006020820190508181036000830152613e0581613dc9565b9050919050565b7f455243313135353a206d696e7420746f20746865207a65726f2061646472657360008201527f7300000000000000000000000000000000000000000000000000000000000000602082015250565b6000613e68602183612b54565b9150613e7382613e0c565b604082019050919050565b60006020820190508181036000830152613e9781613e5b565b9050919050565b6000604082019050613eb36000830185612a9a565b613ec06020830184612a9a565b9392505050565b7f4e487b7100000000000000000000000000000000000000000000000000000000600052602260045260246000fd5b60006002820490506001821680613f0e57607f821691505b602082108103613f2157613f20613ec7565b5b50919050565b60008190508160005260206000209050919050565b60006020601f8301049050919050565b600082821b905092915050565b600060088302613f897fffffffffffffffffffffffffffffffffffffffffffffffffffffffffffffffff82613f4c565b613f938683613f4c565b95508019841693508086168417925050509392505050565b6000819050919050565b6000613fd0613fcb613fc684612963565b613fab565b612963565b9050919050565b6000819050919050565b613fea83613fb5565b613ffe613ff682613fd7565b848454613f59565b825550505050565b600090565b614013614006565b61401e818484613fe1565b505050565b5b818110156140425761403760008261400b565b600181019050614024565b5050565b601f8211156140875761405881613f27565b61406184613f3c565b81016020851015614070578190505b61408461407c85613f3c565b830182614023565b50505b505050565b600082821c905092915050565b60006140aa6000198460080261408c565b1980831691505092915050565b60006140c38383614099565b9150826002028217905092915050565b6140dc82612b49565b67ffffffffffffffff8111156140f5576140f4612c00565b5b6140ff8254613ef6565b61410a828285614046565b600060209050601f83116001811461413d576000841561412b578287015190505b61413585826140b7565b86555061419d565b601f19841661414b86613f27565b60005b828110156141735784890151825560018201915060208501945060208101905061414e565b86831015614190578489015161418c601f891682614099565b8355505b6001600288020188555050505b505050505050565b7f486f706566756c6c792073656e64696e672074686520636f727265637420707260008201527f6963650000000000000000000000000000000000000000000000000000000000602082015250565b6000614201602383612b54565b915061420c826141a5565b604082019050919050565b60006020820190508181036000830152614230816141f4565b9050919050565b7f4d616b652073757265207468652070726963652069736e2774206e656761746960008201527f7665000000000000000000000000000000000000000000000000000000000000602082015250565b6000614293602283612b54565b915061429e82614237565b604082019050919050565b600060208201905081810360008301526142c281614286565b9050919050565b6142d281612a1c565b82525050565b600081519050919050565b600082825260208201905092915050565b60006142ff826142d8565b61430981856142e3565b9350614319818560208601612b65565b61432281612b8f565b840191505092915050565b600060a08201905061434260008301886142c9565b61434f60208301876142c9565b818103604083015261436181866131da565b9050818103606083015261437581856131da565b9050818103608083015261438981846142f4565b90509695505050505050565b6000815190506143a481612af0565b92915050565b6000602082840312156143c0576143bf612959565b5b60006143ce84828501614395565b91505092915050565b60008160e01c9050919050565b600060033d11156144035760046000803e6144006000516143d7565b90505b90565b600060443d106144935761441861294f565b60043d036004823e80513d602482011167ffffffffffffffff82111715614440575050614493565b808201805167ffffffffffffffff81111561445e5750505050614493565b80602083010160043d03850181111561447b575050505050614493565b61448a82602001850186612c2f565b82955050505050505b90565b7f455243313135353a207472616e7366657220746f206e6f6e2d4552433131353560008201527f526563656976657220696d706c656d656e746572000000000000000000000000602082015250565b60006144f2603483612b54565b91506144fd82614496565b604082019050919050565b60006020820190508181036000830152614521816144e5565b9050919050565b7f455243313135353a204552433131353552656365697665722072656a6563746560008201527f6420746f6b656e73000000000000000000000000000000000000000000000000602082015250565b6000614584602883612b54565b915061458f82614528565b604082019050919050565b600060208201905081810360008301526145b381614577565b9050919050565b600060a0820190506145cf60008301886142c9565b6145dc60208301876142c9565b6145e96040830186612a9a565b6145f66060830185612a9a565b818103608083015261460881846142f4565b90509695505050505050565b7f455243313135353a206275726e20616d6f756e74206578636565647320746f7460008201527f616c537570706c79000000000000000000000000000000000000000000000000602082015250565b6000614670602883612b54565b915061467b82614614565b604082019050919050565b6000602082019050818103600083015261469f81614663565b905091905056fea26469706673582212202257dbaaaa8f4401f2e3ca2727f9fa28d045eea4af5bcf951396acb7bc0fae7364736f6c63430008110033",
  "linkReferences": {},
  "deployedLinkReferences": {}
}